:020000040800F2
:10000000E8130020750200087D0200087F02000846
:100010008102000883020008850200080000000039
:10002000000000000000000000000000870200083F
:1000300089020008000000008B0200088D02000801
:100040008F0200088F0200088F0200088F0200084C
:100050008F0200088F0200088F0200088F0200083C
:100060008F0200088F0200088F0200088F0200082C
:10007000AD1E00088F020008DD1E00088F02000878
:100080008F020008151F00088F0200088F02000869
:10009000694600088F0200088F0200088F020008DE
:1000A0008F0200088F0200088F0200088F020008EC
:1000B0008F0200088F0200088F0200088F020008DC
:1000C0008F0200088F0200088F0200088F020008CC
:1000D0008F020008C93E0008853F0008FD3F000868
:1000E0008F0200088F020008B343000800F002F8F6
:1000F00000F0B0F80AA090E8000C82448344AAF112
:100100000107DA4501D100F0A5F8AFF2090EBAE80F
:100110000F0013F0010F18BFFB1A43F0010318473B
:10012000E84E0000084F00000A444FF0000C10F8A1
:10013000013B13F0070408BF10F8014B1D1108BF65
:1001400010F8015B641E05D010F8016B641E01F805
:10015000016BF9D113F0080F1EBF10F8014BAD1C55
:100160000C1B09D16D1E58BF01F801CBFAD505E073
:1001700014F8016B01F8016B6D1EF9D59142D6D3CD
:10018000704700000023002400250026103A28BFF5
:1001900078C1FBD8520728BF30C148BF0B607047F9
:1001A0006E2900F08582702900F0D983662904F059
:1001B0004F86652904F04C86672904F04986612939
:1001C00004F0488603681B0A28BF41F080016929B2
:1001D00000F09080642900F08D80752900F08A80FD
:1001E0006F2900F06683782900F0A583E92900F0E3
:1001F0000183E42900F0FE82F52900F0FB82EF295B
:1002000000F06383F82900F0A4830368DB0928BFAA
:1002100041F08001632900F08787732900F08C8703
:10022000E32900F09787F32900F09C8700207047AE
:100230001FB500F0EDFF04000020002104F0F2FDE6
:10024000401C60600020002104F0D6FDE0601FBD6E
:1002500010B510BD00F0AEFF1146FFF7E9FF04F046
:1002600003FD01F087F803B4FFF7F2FF03BC04F0CD
:1002700024FC00000948804709480047FEE7FEE7E4
:10028000FEE7FEE7FEE7FEE7FEE7FEE7FEE7FEE746
:1002900004480549054A064B70470000353C0008F4
:1002A000ED000008E80D0020E8130020E80F002012
:1002B000E80F0020704700001CB50C46064B7B443D
:1002C00069460090204600F00CFA0446002069467A
:1002D00000F01AFA20461CBD470400000FB4044980
:1002E00010B503AA029800F015FA10BC5DF814FBD3
:1002F000140000202DE9F0410646002410687529FD
:10030000314616A510D000F03FF9002802DA40422D
:1003100013A507E031688A0701D512A502E0490755
:1003200004D511A5012401E000F037F900210A22CB
:1003300006F1240709E0B0FBF2FCB0FBF2F302FB8C
:100340001C00303078541846491C0028F3D123464D
:100350002A463046BDE8F04100F051B900000000E7
:100360002D0000002B000000200000002DE9F05FB0
:10037000894604464FF0000ADFF874B1FB44C0F828
:1003800020A02046E1688847002874D0252806D0A0
:10039000D4E901219047206A401C2062F1E7002641
:1003A0005F462046E16888472028054607DB312D57
:1003B00005D2781910F8200C08B10643F1E7B00710
:1003C00001D526F00406C4F81CA00027C4F818A024
:1003D0002A2D09D0284604F069FB38B304EB8708BE
:1003E000303DC8F8185019E059F8041B204604EBBA
:1003F00087029161E1688847012F054618D1E069BD
:10040000002820DA26F020061DE0D8F8180000EBBE
:10041000800005EB40003038C8F818002046E1683D
:100420008847054604F042FB0028EED1012F0AD090
:100430002E2D08D12046E16888477F1C0546022FF3
:1004400046F02006C4DBA069002803DA404246F0EB
:100450000106A061F00701D026F010066C2D0BD02C
:10046000682D09D04C2D39D06A2D35D0742D35D05A
:100470007A2D33D016E038E0E1682F4620468847D1
:10048000B842054609D16C2F26D04FF48060E16850
:10049000064320468847054604E06C2F1AD04FF4E7
:1004A000807006430DB3A5F14100192802D820350C
:1004B00046F400664A462946204626604E46FFF727
:1004C0006FFE80B101280BD0F61D26F0070000F169
:1004D000080956E74020E4E78020D8E70020D6E767
:1004E00006F104094DE7284652E7206ABDE8F09F6F
:1004F000894B000010B5431C02E010F8011B71B1DC
:100500008107FAD14FF0013202C88C1A8C4314EAE9
:10051000C211F9D0C01A0A0603D0C01E10BDC01AFD
:1005200010BD0A0401D0801E10BD0902FCD0401E7F
:1005300010BD704770477047704770B504468569B5
:100540000068C10601D5302600E02026C00707D08C
:1005500070BDD4E9012130469047206A401C2062DA
:100560006D1EF6D570BD70B5044685690078C0076C
:1005700007D170BDD4E9012120209047206A401C9A
:1005800020626D1EF6D570BD09684A0501D540B2DE
:100590007047C905FCD500B2704709684A0501D506
:1005A000C0B27047C905FCD580B2704770B50C4623
:1005B0000546012A05D02878800600D5EA6900237F
:1005C00002E0012305E05B1C934202D2E05C0028BC
:1005D000F9D1A869E618C01AA861286A18442862E7
:1005E0002846FFF7AAFF04E0D5E9012114F8010B22
:1005F0009047B442F8D32846FFF7B5FF70BD2DE908
:10060000F0470D4699469246044600F124080168D9
:10061000880604D5E06921F01001216000E0012086
:10062000A84201DD471B00E00027A1697A1902EB0F
:100630000900081AA0612078C00602D42046FFF7FE
:100640007CFF002608E0D4E901211AF80600904753
:10065000206A401C761C20624E45F4DB2078C006E0
:100660000AD52046FFF769FF06E0D4E901213020D2
:100670009047206A401C2062381EA7F10107F4DC75
:1006800007E0D4E9012118F805009047206A401CD2
:100690002062281EA5F10105F3DC2046FFF763FF69
:1006A0002078000602D50220BDE8F0870120FBE794
:1006B00011680268006A530501D508700AE0D30585
:1006C00001D5088006E0130603D5C217C1E9000270
:1006D00000E008600120704701694A1C0261087847
:1006E000704700B58FB0CDE9013100210591054972
:1006F0007944CDE9031011466846FFF737FE0FB085
:1007000000BD0000E5FFFFFF0A6802F8010B0A6068
:1007100070470000074B70B50D467B44FFF7E1FFC3
:100720000446284600F022FD10B14FF0FF3070BDA6
:10073000204670BDCB4400002DE9FF5F15468A4678
:100740000446DFF8AC80F8440027D8E900103E46A4
:10075000CDE9001010E03AF816106A4602A800F041
:1007600009FD411C07D02178890603D5E2693918B3
:1007700091420DD80744761C2078800602D5E069A6
:10078000B84205DDAE42E6DB3AF816000028E2D1B9
:10079000A069C01BA0612046FFF7CFFED8E900107A
:1007A000CDE90010002017E03AF818106A4602A8B8
:1007B00000F0E0FCB0F1FF3F81460BD000250DF1C9
:1007C000080B05E0D4E901211BF8050090476D1CDA
:1007D0004D45F7D308F10100B0428046E4DB206AC2
:1007E000384420622046FFF7BEFEBDE8FF9F0000B0
:1007F000D24700002DE9F0418046D21D22F00702C9
:100800000025D2E90002F52915A614D0011E72F1C7
:10081000000106DA0023D0EB030063EB020211A60D
:1008200008E0D8F800108B0701D50FA602E04907B1
:1008300001D50EA601251146002408F1240704E085
:1008400000F098F830323A55641C50EA0102F7D1B2
:100850002B46324621464046BDE8F041FFF7CFBE69
:10086000000000002D0000002B0000002000000010
:1008700030B4002100F1240408E002F00705D2089A
:10088000303542EA4372DB086554491C52EA0305DD
:10089000F3D10468002310A2250707D5A40600D4CD
:1008A00021B1C46901230DA2641EC46130BCFFF7ED
:1008B000A6BE10B5044621461068FFF76EFE02463C
:1008C0002046BDE810400023D2E7D21D22F00701E8
:1008D000D1E90023CCE70000000000003000000058
:1008E000F0B40D460188090502D5214C7C4402E094
:1008F0001F4C7C440E34002100F1240608E002F075
:100900000F071209E75D42EA03721B097754491C7D
:1009100052EA0307F3D102780023120704D5702DA1
:1009200006D009B1022311342246F0BCFFF767BE9E
:1009300001231034F8E770B504460D4621461068CF
:10094000FFF72BFE024629462046BDE870400023F3
:10095000C6E7D21D22F00703D3E90023C0E70368EE
:10096000126843F0200303600823C3610023B7E744
:100970003446000030B5B0F10A024FEA900E71F132
:1009800000034EEA817EB0EB0E0061EB91014FEA6D
:10099000101E4EEA017E10EB0E0041EB11114FEAE2
:1009A000102E4EEA016E10EB0E0041EB11214FEAC2
:1009B000104E4EEA014E10EB0E0041EB1141401873
:1009C00041F100014FEAD00040EA41704FEAD10105
:1009D00010EB80054FEA810444EA907444EB010473
:1009E0006D1944EB0404521BA3414FF0000348BFB0
:1009F0000A3200D530BD401C41F1000130BD7047C6
:100A00002DE9FF4F0C461E464FF0FF378BB0D2E961
:100A10000001DDF860800A908A46C1F30A5505B9E5
:100A20003D46002108464FF00000BAF1000F00F4E7
:100A3000400005DA00EB80004FF4400101EA50006D
:100A40004FEA9059B9F1010F00DDB9460A9850EA12
:100A50004A000ED044F61050A5F2FF3545432F143E
:100A6000B8F1000F1ED07542291E1EDDC9F100022B
:100A70001CE0B8F1010F4FF0000001D0302103E07D
:100A8000F24305E02154401CB042FBDB304600221B
:100A9000002121540B99C1F80880C1E900200FB052
:100AA000BDE8F08FBD1B6D1CDEE74A4600DA6942E7
:100AB00006A800F0F1FB06AB93E8070003AB83E860
:100AC000070050460A9900F0A3FC8DE80700A0F546
:100AD00000501F3800900398002D09DD42F21F01DD
:100AE0004A46084403A90390684600F002FF08E064
:100AF000A0F500504A461F3803A90390684600F04D
:100B00000CFF8DE807000004000C03D04FF0FF300D
:100B1000410800E01046B8F1000F03D00022009217
:100B200015461EE0751E05D4FFF724FF30326255CE
:100B30006D1EF9D5B3460122084302D000227F1C66
:100B400004E02078302801D100227F1E002A099776
:100B500086D01DE0112D07DAFFF70CFF3032625509
:100B60006D1C50EA0102F5D1084302D00098C8B1CB
:100B70000EE00021681E05E0235C625C6354225491
:100B8000401E491C8142F7DBAB46A81B401E099062
:100B9000002004F80B000B98099AC0F80880C0E9FF
:100BA000002B7CE711264FF0000859E72DE9F04FA4
:100BB00088460446D21D22F0070191B0D1E9000118
:100BC000CDE90A0103F05EFF02460B98C00F01D089
:100BD0002D2007E02068810701D52B2002E020218D
:100BE00001EAC000032A099001D0072A05DB034669
:100BF0004146204600F010FB0BE12078800601D52D
:100C0000E06900E00620B8F1650F814606D0B8F132
:100C1000660F18D0B8F1670F70D131E00020B9F13C
:100C2000110F009001DB112301E009F101030AAA71
:100C300001A90CA8FFF7E4FEDDE90C70002609F11C
:100C40000105834647E001204B4600904FF00047E6
:100C50000AAA01A90CA8FFF7D3FEDDE90DB00C9993
:100C60005D46002610B909F101000D18B9EB050029
:100C700003D4C0F1FF3609F10105A5EB09002BE013
:100C8000B9F1010F01DA4FF001090020B9F1110F9C
:100C90000090484601DD112300E003460AAA01A99D
:100CA0000CA8FFF7ADFEDDE90C704D46002683462B
:100CB000207800070AD4AB4500DA5D4601A8012D73
:100CC00004DD411911F8011C302907D04F4502DA23
:100CD00017F1040F04DA012082460FE06D1EEEE7E3
:100CE000002F02DCED1B3E4403E0781CA84200DD2F
:100CF0007D1CB81B00F1010A4FF000472078000767
:100D000003D4AA4501DB4FF0FF3A0021B7F1004FB1
:100D10000DF143088DF8431024D002202B23002F1F
:100D200001DA7F422D230A21021EA0F1010000DC1E
:100D30005FB197FBF1FC97FBF1F201FB1C7C1746BE
:100D40000CF1300C08F801CDEEE7A8F101000370BA
:100D50002188090501D5452100E06521A0F10108A0
:100D600000F8011C09980FA9A1EB0807FF1D00B1AD
:100D70000120411901EBEA70A1693844081A401EAC
:100D8000A0612078C00602D42046FFF7D6FB099860
:100D900028B1D4E901219047206A401C20622078C4
:100DA000C00622D52046FFF7C8FB1EE0002E04DB5C
:100DB000B34502DD01A8805D00E03020D4E90121C7
:100DC0009047206A401C2062761CAAF101005FEA6D
:100DD000000A0AD100F01CFAC0680168405CD4E93E
:100DE00001219047206A401C2062281EA5F10105C0
:100DF000DCDC07E0D4E9012118F8010B9047206AF8
:100E0000401C2062381EA7F10107F3DC2046FFF7E3
:100E1000AAFB032011B043E62DE9F04F04460D462E
:100E2000D21D22F0070089B0D0E900974846394624
:100E300003F028FE0246F80F01D02D2307E02068BA
:100E4000810701D52B2302E0202101EAC0038DF8A0
:100E500020300BB1012000E00020032A824601D09F
:100E6000072A04DB2946204600F0D6F93FE1207826
:100E7000800601D40D2500E0E569C7F30A560D2D63
:100E800049DA00214FEA175B08464FF00000002FB7
:100E900000F4400007DA00EB80004FF4400100EB63
:100EA000D07001EA60008115012901DD4FF0FF31AA
:100EB00000224FEA850CBCF1180F06D31346ACF1A3
:100EC00018004FF08052C24003E04FF4801323FA21
:100ED0000CF30CF10C0CBCF1200F04D3ACF1200C82
:100EE00009FA0CF001E007FA0CF000294FF0004875
:100EF00001DD18B90FE00ED140450CD319EB020902
:100F00005F4121B9404502D19F4329EA0209BBEB69
:100F1000175F00D0761C2088000502D57B487844F6
:100F200002E07A487844193808AA302302F80A30D7
:100F3000037C0AF10101002E0AF1020A53546A46A9
:100F400002DC4FF0300101E04FF031014FF00108B9
:100F50008DF8001002D0A6F2FF3603E059EA4701EF
:100F600000D06B4E002D02DC2178090704D54FF02C
:100F700002082E218DF80110C44600210BE0C7F3B2
:100F800003433F01C35C491C6D1E02F8083005296C
:100F900008F1010801DA002DF1DC00210CE000EB82
:100FA0001973491C1B786D1E082902F808304FEA96
:100FB000091908F1010801DA002DF0DC21688B061F
:100FC00002D516E0A8F10108E04505DD02EB0803B3
:100FD00013F8013C302BF5D0B8F1000F09DD02EB1E
:100FE000080313F8013C2E2B03D1090701D4A8F103
:100FF0000108002D05DD3E2102F808106D1E08F1E4
:101000000108407C002E02F8080008F1010804DA0B
:101010002D20764202F8080002E02B2002F808009A
:101020000A214FF47A70864208F101080BDB96FB27
:10103000F0F3303302F8083096FBF0F308F10108C2
:1010400000FB136601E0642E0CDB642096FBF0F3DA
:10105000303302F8083096FBF0F308F1010800FB8A
:10106000136601E00A2E06DB96FBF1F0303002F841
:10107000080008F1010896FBF1F001FB1060303028
:1010800002F80800A16908F1010808EB050202EB6B
:101090000A00081AA0612078C00602D42046FFF793
:1010A0004CFA216A08AE01EB0A00206204E0D4E9A0
:1010B000012116F8010B9047BAF1010AF7D2207806
:1010C000C00602D52046FFF738FA6E4609E016F84A
:1010D000010B3E280FD0D4E901219047206A401C23
:1010E0002062B8F10108F2D22046FFF73CFA09B0BD
:1010F0000320BDE8F08F206A2844206203E0D4E991
:101100000121302090476D1EEBD3F8E73D400000F1
:1011100002FCFFFF10B5436913B1AFF3008001E09B
:10112000FFF744FA012010BD127800F124010A7083
:1011300000224A700122EDE711684FF0FF32E9E723
:1011400010B5436913B1AFF3008001E0FFF7F4FA83
:10115000012010BD128800F1240182840022C28483
:101160000122EDE711684FF0FF32E9E7007B00F064
:101170008000704770B516460C46054600F040F8F2
:10118000036893F80101012806D0FF2C0FD8185DE1
:1011900068B101202C7070BDD3F80701324621469A
:1011A00003F2071303442846BDE8704018474FF088
:1011B000FF3070BD754600F0E7F8AE4605006946A1
:1011C000534620F00700854618B020B5FFF760F8B9
:1011D000BDE820404FF000064FF000074FF0000838
:1011E0004FF0000B21F00701AC46ACE8C009ACE8B9
:1011F000C009ACE8C009ACE8C0098D4670470000E2
:1012000010B500F005F8001D10BD00BF193C00002E
:1012100000487047A80D00202DE9F0411F46044604
:1012200003260168072A01F4006004DB08B116A553
:1012300005E016A503E008B115A500E015A521F00D
:1012400010002060A069C01EA0610FB1401EA06107
:101250002046FFF772F94FB1D4E901213846904793
:10126000206A401C2062C01C206206E0206AFAE767
:10127000D4E9012115F8010B9047761EF8D22046DB
:10128000FFF771F9BDE8F0814E414E006E616E00CE
:10129000494E4600696E66002DE9F04781461646C4
:1012A0008AB0334878440DC88DE80D003048784442
:1012B000801C03AC0DC884E80D0041F69B30084447
:1012C000372190FBF1F290FBF1F5A5F1800501FBD0
:1012D00012041B3C02D56442012000E00020DFF82C
:1012E00090A080460027FA44AAF1BE0A0DE0E0076C
:1012F00009D03246684607EB47010AEB810100F04E
:101300000CFB8DE8070064107F1C002CEFD1184FF8
:101310007F44AC3F18E0E80714D007EB04100DF150
:10132000180A90E80E008AE80E00C068F04201D169
:1013300098190890324606A903A800F0EEFA03AB0C
:1013400083E807006D10641C002DE4D13246694625
:10135000B8F1000F03A802D000F0CBFA01E000F0D2
:10136000DCFAC9E90001C9F808200AB0BDE8F08735
:10137000483D000010B50446AFF300802046BDE8AC
:101380001040FEF770BF000000487047880D002035
:101390004FF0013C50F8042B51F8043B9A4221D104
:1013A000A2EB0C03934313EACC1317D150F8042B90
:1013B00051F8043B9A4215D1A2EB0C03934313EA74
:1013C000CC130BD150F8042B51F8043B9A4209D1AD
:1013D000A2EB0C03934313EACC13DBD04FF00000D5
:1013E000704700BFD01A01BAB1FA81F101F01801BB
:1013F00022FA01F0CB40C1F12001DBB2C0B2C01A29
:101400002CFA01F3D11A914311EAC311E6D17047C6
:101410005FEA400C08BF91F0000F4FEA8C234FEABF
:10142000C12243EA51514FEA1C5018BF00F5F04069
:101430004FEA300018BF41F000415FEA6C5C00F0F9
:101440002980BCF1FF3F08BF40F080407047130C7B
:1014500006BF12044FF0100C4FF0000C130E04BF27
:1014600012020CF1080C130F04BF12010CF1040C52
:10147000930F04BF92000CF1020CD30F04BF520073
:101480000CF1010C11464FF00002A0F11F00A0EB7F
:101490000C00704711F0004F08BF704731F0004159
:1014A0003FF4D5AF0B0C06BF09044FF0100C4FF002
:1014B000000C0B0E04BF09020CF1080C0B0F04BF4B
:1014C00009010CF1040C8B0F04BF89000CF1020C14
:1014D000CB0F04BF49000CF1010CCCF12003A0EBB1
:1014E0000C0022FA03F302FA0CF241EA030100F1C4
:1014F0000100704720F07F4C80EA030023F07F4713
:10150000ACEB070303F57C5300F0004003F1FF034D
:101510002DE980494FEA154B09B44FEA144325EAF7
:101520000B4E24EA03480FF2042606EB1327490862
:101530003E785FEA320203FB0667C7F5000707FB48
:1015400006F64FEA54374FEAD64606F1020607FB85
:10155000066CCCF1005C4FEA1C472CEA074C07FBF9
:1015600006F40CFB06F504EB15464FEA961634BF5D
:1015700000204FF000404FEAD13706FB07FC4FEA4E
:101580001C4C0CFB0BF7D21B03FB0CF761EB0701A8
:101590000CFB0EF7B0EB074072EB17420CFB08F7A1
:1015A00034BFA2EB0742B2EB074261EB17414FEAAF
:1015B0000C444FEA910706FB07FC4FEA1C4C0CFB5E
:1015C0000BF7B0EBC74072EB573203FB0CF734BF9D
:1015D000A2EBC742B2EBC74261EB57310CFB0EF7EF
:1015E000B0EBC70072EB57720CFB08F734BFA2EBED
:1015F000C702B2EBC70261EB5771039F4FEA8161EB
:1016000041EA921104EBCC044FEAD1374FEA8262EF
:1016100006FB07FC42EA90124FEA80604FEA1C4C3E
:101620000CFB0BF7D21B03FB0CF761EB07010CFB68
:101630000EF7B0EB074072EB17420CFB08F734BF14
:10164000A2EB0742B2EB074261EB17414FEA8C5520
:101650004FEA910704EB9C2406FB07FC4FEA1C4C65
:101660000CFB0BF7B0EBC74072EB573203FB0CF7E8
:1016700034BFA2EBC742B2EBC74261EB57310CFB60
:101680000EF7B0EBC70072EB57720CFB08F734BFD4
:10169000A2EBC702B2EBC70261EB577115EB4C2509
:1016A0004FEA816141EA92114FEA82624FEAD137F3
:1016B00042EA901206FB07FC44F100044FEA806006
:1016C0004FEA1C4C0CFB0BF7D21B03FB0CF761EB36
:1016D00007010CFB0EF7B0EB074072EB17420CFB57
:1016E00008F734BFA2EB0742B2EB074261EB1741A8
:1016F00015EB1C154FEA813141EA92414FEA8232E3
:1017000042EA90424FEA80304FEA0C7644F10004FE
:1017100048EA03434EEA0B484FF0000EB2EB080CC8
:1017200071EB030724BF624639464EEB0E0E4FF0B5
:10173000000B0018524149414BEB0B0BB2EB080C6C
:1017400071EB03077BF1000B24BF624639464EEB79
:101750000E0E4FF0000B0018524149414BEB0B0BA2
:10176000B2EB080C71EB03077BF1000B24BF624660
:1017700039464EEB0E0E51EA020718BF46F001063D
:1017800016EB0E7655F1000254F1000103D5BDE8C9
:101790008901BDE80088BDE88901BDE80048B619A7
:1017A000524141EB0101A3F10103704780807F7E2C
:1017B0007D7C7B7A797877767675747372717170C7
:1017C0006F6E6E6D6C6C6B6A6A6968686766666579
:1017D0006464636362616160605F5F5E5E5D5D5C07
:1017E0005C5B5B5A5A595958585757565655555578
:1017F0005454535352525251515050504F4F4F4ED8
:101800004E4D4D4D4C4C4C4B4B4B4A4A4A49494925
:101810004848484747474746464645454544444467
:10182000444343434342424242414141002B26D478
:10183000770021D01CB54FEA370703B44FF01000F2
:101840004FF010014FF000000FBCBDE810400BF14D
:10185000010BBBF1010F08BF5FEA170722BF12F1AE
:10186000010211F101014FF0004143F1000300F0CA
:10187000004043EA00007047F9D35708DAE746EA28
:10188000064613F1400F4FEA16461FDD13F1200FF5
:10189000DFBF16430A46002120335B42C8D0C3F1A4
:1018A000200746EA064602FA07F74FEA164646EAD6
:1018B0000706C3F1200722FA03F201FA07F721FA1B
:1018C00003F14FF0000342EA0702B1E746EA0206DD
:1018D00046EA06464FEA164646EA0106BCBF46EA15
:1018E0000646360C4FF000034FF000024FF00001A7
:1018F0009EE72DE9C048934630B491E8380007C808
:1019000031EA400C48BF34EA430C03D5FFF7F2FD3F
:10191000FFF78CFFF0BCBDE800882DE9C048934676
:1019200030B491E8380007C810F0804F08BF13F0BA
:10193000804F03D100F005F8FFF778FFF0BCBDE859
:10194000008820F07F4780EA030023F07F4C07EBFC
:101950000C03A3F57C5300F00040A3F1FE0392F0CA
:10196000000F00F0B38095F0000F00F077802DE9B4
:1019700001494FEA11404FEA144621EA004800FBB2
:1019800006FC24EA064708FB06F607FB08F800FBFE
:1019900007F718EB06484CEB164C4FEA124B18EBC6
:1019A00007484FEA15464CEB174022EA0B4E0BFB5B
:1019B00006FC25EA06470EFB06F607FB0EFE0BFBB0
:1019C00007F71EEB064E4CEB164C4FF000061EEBD5
:1019D000074E4CEB174B18EB0B0840F1000018EBCF
:1019E0000E0B58EB000840F100008F1A4FF0000179
:1019F0003CBFC943661B14BFB5EB040C00213CBFC0
:101A0000C943F61B4FEA17444EEA8E0E27EA0445F7
:101A10004FEA1C4704FB07622CEA074C05FB07F75B
:101A20000CFB05F604FB0CFC16EB074642EB1742D9
:101A300016EB0C4642EB1C421BEB060658EB02026F
:101A4000414146EA9E0601D5BDE80189B6195241D9
:101A500041EB0101A3F10103BDE801894FEA1445FF
:101A60004FEA114724EA054621EA074C05FB07F433
:101A700006FB07F70CFB06F105FB0CFC11EB07411D
:101A800044EB17444FEA124711EB0C4144EB1C4462
:101A900022EA074C05FB07F206FB07F70CFB06F6EC
:101AA00005FB0CFC16EB074642EB174216EB0C4607
:101AB00042EB1C456A1854F1000148BF7047B61943
:101AC000524141EB0101A3F10103704795F0000F72
:101AD00037D04FEA11424FEA144721EA024624EA7E
:101AE000074C02FB07F106FB07F70CFB06F402FBB1
:101AF0000CFC14EB074441EB17414FEA154714EB7C
:101B00000C4441EB1C4125EA074C02FB07F506FBA0
:101B100007F70CFB06F602FB0CFC16EB074645EB41
:101B2000174516EB0C4645EB1C42121951F100010A
:101B300048BF7047B619524141EB0101A3F10103BF
:101B400070474FEA14454FEA114724EA054621EA57
:101B5000074C05FB07F106FB07F70CFB06F24FF0FD
:101B6000000605FB0CFC12EB074241EB174112EBA0
:101B70000C4251EB1C4148BF7047921841EB0101E8
:101B8000A3F1010370470146CAB20B1243EA0220D7
:101B90007047000008B50020009022E197480088B7
:101BA00000F00F00964908700846007800287CD1A4
:101BB00094480068944908800846008800F0300086
:101BC000924908809048008800F440508E4908806F
:101BD0008C4909684BF6BF7201EA020080F400509C
:101BE00080F0200040F4004141F08001854A1160FE
:101BF0008248008800F0100090BB1046006848F64C
:101C00000F7108401146086000F0D0FD7D49096859
:101C10004BF6BF7201EA02007B49098801F480514A
:101C200009B180F480507849098801F4005109B164
:101C300080F400507549098801F0100109B180F065
:101C400010007249098801F0200109B180F02000DC
:101C500081B241F4004141F080016A4A116008BD3F
:101C6000FFE76848006880B20090BDF8000000F40B
:101C70000060B0B363480068C0F30E0048F68F718F
:101C800008406049086001F0CDFC5E4909684BF6E8
:101C9000BF7201EA02005C49098801F4805109B170
:101CA00080F480505849098800E056E001F4005162
:101CB00009B180F400505549098801F0100109B1BB
:101CC00080F010005149098801F0200109B180F02D
:101CD000200081B241F4004141F08001494A116085
:101CE000BDE7FFE7BDF8000000F40040002878D011
:101CF00044480068C0F30E0048F68F71084041491F
:101D0000086001F033F93F4909684BF6BF7201EAF8
:101D100002003D49098801F4805109B180F48050E6
:101D20003949098801F4005109B180F4005037495C
:101D3000098801F0100109B180F0100033490988C9
:101D400001F0200109B180F0200081B241F400418E
:101D500041F080012B4A116081E7294800782C4925
:101D600001EB8000D0F8000C80B20090BDF80000BC
:101D700000F40040C0B12248007801EB8000D0F8A8
:101D8000000CC0F30E0048F68F7108401C4909781A
:101D90001F4A02EB8101C1F8000C19490978491E5C
:101DA0001C4A52F821008047BDF8000000F0800076
:101DB000B8B113480078164901EB8000D0F8000C48
:101DC00048F60F7108400E490978114A02EB81016B
:101DD000C1F8000C0A490978491E0F4A52F821003F
:101DE000804708484430006880B20449088000F405
:101DF000004000287FF4D2AE00BF30E75000002042
:101E000038010020005C00404C0100204E01002001
:101E100000500040780000205C0000200B4A02EBDC
:101E20008001D1F8001C01F4804171B102EB800106
:101E3000D1F8001C48F68F7211404CF28002114319
:101E4000024B03EB8002C2F8001C704700500040B8
:101E50000B4A02EB8001D1F8001C01F0400171B186
:101E600002EB8001D1F8001C48F68F72114048F255
:101E7000C0021143024B03EB8002C2F8001C704702
:101E800000500040084A02EB8001D1F8001C48F6DF
:101E90008F62114048F280021143034B03EB800232
:101EA000C2F8001C704700000050004010B5202010
:101EB00000F08EF801280CD10021064800F062F8ED
:101EC000054800688047202000F040F8202000F0FE
:101ED0004BF810BD1C0002402C00002010B54FF440
:101EE000005000F075F801280ED10021074800F0DD
:101EF00049F80748006880474FF4005000F026F882
:101F00004FF4005000F030F810BD000044000240D3
:101F10001C00002010B54FF0007000F059F80128A7
:101F20000ED10021074800F02DF8074800688047CF
:101F30004FF0007000F00AF84FF0007000F014F855
:101F400010BD0000800002402400002000F08051FD
:101F500011B10349086001E0024948607047000080
:101F6000040402400000024000F0805111B1034916
:101F7000086001E002494860704700000404024024
:101F80000000024021B1026842F00102026004E058
:101F900002684FF6FE731A400260704701464868B7
:101FA00080B2704701460020002201F0805313B137
:101FB000054B1A6801E0054B1A6802EA01030BB1F0
:101FC000012000E0002070470004024000000240B1
:101FD00001460020002201F0805313B1054B1A681E
:101FE00001E0054B1A6802EA01030BB1012000E091
:101FF0000020704700040240000002401AB103684C
:102000000B43036002E003688B430360704710B525
:102010000022026847F6F0739A430C6A8B682343E8
:102020000C6923434C6923438C692343CC692343C4
:102030004C6A23438C6A23431A430260CB68436093
:102040000B6883604B68C36010BD4160704700003F
:102050002DE9F0472848006800F110052E88264831
:102060000068077AD6B9042F18D1244800780128CF
:102070000FD100212248006880B2801C214A42F81A
:10208000101030202049088000BF00201B49087034
:1020900003E0072710201C49088027E0AC88A642EF
:1020A00001D8042000E002200746B44200D934469B
:1020B000A0B2A96888478046002000F04DFB814609
:1020C000A2B24946404602F081FBA1B2002001F0D5
:1020D000D1F92888001B2880688820446880302037
:1020E0000949088000020949088000BF02490968BF
:1020F0000F72BDE8F08700003C010020360100208F
:10210000505C0040006000404E0100204C01002067
:102110002DE9F0412848006800F110042688A068E5
:10212000C0B1BEB1A588B54200D93546A8B2A168F4
:10213000884707462088401B2080608828446080AC
:10214000002000F0E7FA8046AAB24146384600F087
:1021500035FF00BF208850B14FF440501749088028
:102160000021084601F086F93020154908802088B2
:10217000A188884204DB03200F490968087218E02F
:102180002088002804DD05200B490968087210E04A
:10219000208870B90620084909680872002109489A
:1021A000006880B2801C084A42F8101030200449B0
:1021B0000880BDE8F08100003C0100204C010020B7
:1021C0004E010020505C0040006000402DE9F84FB7
:1021D0009B48006845780027BA46062D1BD19848D1
:1021E0000068007800F07F00002813D19449096846
:1021F0008878012803D193490968CF690AE0022849
:1022000003D1904909680F6A04E0032802D18D497F
:1022100009684F6A94E0002D64D1894800684088BD
:1022200000285FD186480068C08802285AD18448B7
:1022300000680079002855D181480068007800F0D6
:102240007F0028B97E480068808808B97E4F77E013
:102250007B480068007800F07F00012810D17849A1
:1022600009684879774909688A69002190470028F8
:1022700066D173480068807A002861D0724F5FE0B1
:102280006F480068007800F07F00022858D16C4841
:102290000068407900F00F0669480068407900F056
:1022A000700967480068407900F0800038B16749DC
:1022B00001EB8600D0F8000C00F0300806E063491E
:1022C00001EB8600D0F8000C00F44058604800781C
:1022D000B04235D9B9F1000F32D1B8F1000F2FD08B
:1022E000594F2DE0082D07D155480068007800F0BF
:1022F0007F0028BB574F23E00A2D21D150480068AA
:10230000007800F07F0001281AD14D480068807ADB
:10231000B0B14B480068408890B9494800680079DE
:1023200070B947480068C088012809D14449096844
:102330004879444909688A690021904700B9464FA5
:1023400057B13F480068A0F812A03D480068876177
:102350000020B84700240FE0394A12685078394A03
:102360001268116988470446032C05D109203449B5
:1023700009680872BDE8F88F31480068008A4FF696
:10238000FF71884204D109202D4909680872F1E7DC
:10239000022C03D02A480068008A20B90820284966
:1023A00009680872E6E726480068007800F08000B7
:1023B000E0B323480068C088009021480068008A84
:1023C0000099884204D91E4900980968088223E0D0
:1023D0001B480068008A1A490968C98888421BDAC4
:1023E00017480068008A1749096891F82C1088423C
:1023F00003DA0020194908700EE011480068008ACD
:102400001049096891F82C1090FBF1F201FB1200C1
:1024100010B90120114908700A48006890F82C1082
:10242000074800688182FFF713FE07E0FFE70320FB
:1024300003490968087200030949088000BF99E749
:102440003C01002040010020C53800080050004039
:10245000A000002049380008993800083601002003
:102460004C01002070B52248B0F802042049B1F8B0
:102470000014884200D170BD1D48B0F802041C4908
:10248000B1F80014884208DA1948B0F80004184975
:10249000B1F80214401A84B205E01548B0F80204FD
:1024A000C0F5806084B2402C00DD40241048B0F8B4
:1024B0000254B0F8020420440D49A1F80204084671
:1024C000B0F80204B0F5806F02DB0020A1F802042E
:1024D000074948192246C02102F078F92146012017
:1024E00000F0C8FF012000F0F3FF00BFC3E70000C9
:1024F0007807002010B50649032002F0F7F884B2EF
:10250000E1B2034802F00AF9032000F089FF10BD90
:102510000C0D0020014908607047000014040140C0
:10252000002123498279002A3AD00A4612680368BA
:102530009A430B461A600A1D126803689A430B1DE2
:102540001A60027911440A6803681A430A60184A3B
:102550000832126803689A43154B08331A601A1D33
:10256000126803689A43124B0C331A604279102A9E
:102570000ED11A1F126803681A430D4B08331A60F4
:102580001A1D126803681A43094B0C331A600DE0D8
:102590000749427911440A6803681A430A6005E052
:1025A000027911440A6803689A430A607047000080
:1025B0000004014010B503A0FDF790FE0320084978
:1025C000086010BD75736220656E746572206C6F53
:1025D0007720706F776572206D6F64650D0A00005B
:1025E000280100202DE9F0410246002500260020A8
:1025F00000230024002791F803C00CF00F0591F888
:1026000003C00CF0100CBCF1000F03D091F802C015
:102610004CEA050591F800C0BCF1000F31D01468F8
:1026200000202BE04FF0010C0CFA00F3B1F800C0D1
:102630000CEA03069E4220D183004FF00F0C0CFAE7
:1026400003F7BC4305FA03FC4CEA040491F803C009
:10265000BCF1280F06D14FF0010C0CFA00FCC2F8B7
:1026600014C00AE091F803C0BCF1480F05D14FF047
:10267000010C0CFA00FCC2F810C0401C0828D1D391
:102680001460B1F800C0BCF1FF0F34DD54680020C5
:102690002EE000F1080C4FF0010808FA0CF3B1F835
:1026A00000C00CEA03069E4221D183004FF00F0CBC
:1026B0000CFA03F7BC4305FA03FC4CEA040491F856
:1026C00003C0BCF1280F05D100F1080C08FA0CF882
:1026D000C2F8148091F803C0BCF1480F07D100F193
:1026E000080C4FF0010808FA0CF8C2F81080401CE2
:1026F0000828CED35460BDE8F081024600209368DC
:102700000B400BB1012000E0002070474161704791
:102710000161704701460548006880B200EBC100C6
:10272000001D034A32F8100080B27047505C004030
:102730000060004001460648006880B200EBC1001E
:10274000801D044A32F81000C0F3090070470000F1
:10275000505C00400060004001460548006880B2BF
:1027600000EBC100034A32F8100080B2704700004D
:10277000505C00400060004070B50A480468001DCD
:102780000568001D0668344454B1082206492046F5
:1027900000F044F8042204491031284600F03EF8C5
:1027A00070BD0000E8F7FF1F3400002010B5184886
:1027B0000068047A022C01D0042C05D1FFF748FCF4
:1027C00013480068047A1CE0062C19D110480068F0
:1027D000407805280ED10E480068007800F07F0090
:1027E00040B90B490968C87800F09AFD09490968A1
:1027F000086A80470849096888688047082400E01B
:102800000824034909680C7200F0ECFB10BD0000BD
:102810003C010020480100204001002030B50B465B
:10282000002100BF16E00A24B4EB107F05D9302444
:1028300004EB107403F8114005E0412404EB10741C
:102840000A3C03F81140000100254C00641C1D5592
:102850004C1CE1B29142E6DB30BD000010B5074CE4
:1028600007A0FDF73BFDA07A18B105200A490860D2
:1028700002E001200849086010BD00006C0D002036
:102880006C65617665206C6F7720706F776572205C
:102890006D6F64650D0A0000280100202DE9F041EC
:1028A00005460C46284600F07FF80646204600F014
:1028B00043F8074639463046FFF71FFFBDE8F08171
:1028C0002DE9F84307460D461646384600F06CF8E9
:1028D0008146284600F030F880461EB1012E03D113
:1028E000482403E0282401E0042400BF00BF8DF841
:1028F000034003208DF80200ADF800806946484689
:10290000FFF770FEBDE8F883F8B505460C4628468B
:1029100000F04AF80746204600F00EF80646102060
:102920008DF8030003208DF80200ADF800606946C1
:102930003846FFF757FEF8BD0146102931D2DFE8CF
:1029400001F0080A0C0E10121416181B1E21242761
:102950002A2D012070470220FCE70420FAE7082016
:10296000F8E71020F6E72020F4E74020F2E7802087
:10297000F0E74FF48070EDE74FF40070EAE74FF4B2
:102980008060E7E74FF40060E4E74FF48050E1E750
:102990004FF40050DEE74FF48040DBE74FF4004097
:1029A000D8E70120D6E700000146072913D2DFE867
:1029B00001F00406080A0C0E100008487047084889
:1029C000FCE70848FAE70848F8E70848F6E7084847
:1029D000F4E70848F2E70748F0E700000008014084
:1029E000000C01400010014000140140001801409B
:1029F000001C01400020014010B50446072C28D2DD
:102A0000DFE804F004090E13181D22000121042040
:102A100000F05CFB1DE00121082000F057FB18E0EE
:102A20000121102000F052FB13E00121202000F0D2
:102A30004DFB0EE00121402000F048FB09E00121A0
:102A4000802000F043FB04E00121080200F03EFB7F
:102A500000BF00BF10BD2DE9F04106460C461546EB
:102A60003046FFF7A1FF80462046FFF765FF074687
:102A700025B939464046FFF749FE03E0394640464E
:102A8000FFF746FEBDE8F08110B50446204600F091
:102A900070F8E17860780022FFF7DDFFA1782078F8
:102AA0000022FFF7D8FFE08802F090F8A1782078A4
:102AB0000122FFF7D0FFE08802F088F8E178607823
:102AC0000122FFF7C8FFE08802F080F810BD10B5C2
:102AD0000446E1786078FFF7E1FE10BD70B504466A
:102AE0000025204600F022F80121204600F0C9F818
:102AF000022002F06BF8A17820780122FFF7ABFFEB
:102B0000022002F063F805E0681CC5B2FA2D01DD71
:102B1000012070BD2046FFF7DAFF0028F4D1A1782C
:102B200020780022FFF797FF0020F2E710B5044657
:102B3000E17860780122FFF7C3FE10BD10B50446AE
:102B40002078FFF759FF6078FFF756FFA1782078CB
:102B5000FFF7DAFEE1786078FFF7D6FEA1782078FB
:102B60000122FFF778FFE17860780122FFF773FF19
:102B700010BD10B50446E1786078FFF7C5FE10BDC2
:102B800070B50446002600BF2046FFF7CFFF20792E
:102B9000E0B9002517E02046FFF799FFA840304331
:102BA000C6B2E08802F012F8A17820780122FFF77F
:102BB00052FFE08802F00AF8A17820780022FFF79F
:102BC0004AFF681CC5B2082DE5DB1DE0002519E0B1
:102BD0002046FFF77CFFC5F1070188403043C6B2AD
:102BE000E08801F0F3FFA17820780122FFF733FF9E
:102BF000E08801F0EBFFA17820780022FFF72BFF9F
:102C0000681CC5B2082DE3DB304670BD2DE9F041EC
:102C100007460C4616460025A846384600F060F8E0
:102C2000002040EA4400C1B2384600F07CF8384643
:102C3000FFF754FF2844C5B23146384600F073F818
:102C40003846FFF74BFF2844C5B2384600F048F835
:102C5000012000EB4400C1B2384600F064F8384669
:102C6000FFF73CFF2844C5B23846FFF789FF80468E
:102C7000384600F016F83846FFF706FF4046BDE834
:102C8000F08170B504460D462DB9E17860780022D8
:102C9000FFF7E1FE04E0E17860780122FFF7DBFE58
:102CA00070BD10B50446A17820780022FFF7D3FE4E
:102CB0002046FFF75EFF01212046FFF7E2FFE08894
:102CC00001F084FFA17820780122FFF7C4FEE0889C
:102CD00001F07CFFA17820780022FFF7BCFE10BD38
:102CE00010B504462046FFF744FFA1782078012262
:102CF000FFF7B1FEE17860780122FFF7ACFEE088D3
:102D000001F064FFE17860780022FFF7A4FEE0881C
:102D100001F05CFFA17820780022FFF79CFEE0889C
:102D200001F054FF10BD70B504460E462046FFF773
:102D300020FF2079E0B9002517E006F001012046C8
:102D4000FFF79FFF7610E08801F040FFA178207820
:102D50000122FFF780FEE08801F038FFA17820789B
:102D60000022FFF778FE681CC5B2082DE5DB1CE0E9
:102D7000002518E006F080012046FFF782FF70066C
:102D8000060EE08801F022FFA17820780122FFF7EB
:102D900062FEE08801F01AFFA17820780022FFF798
:102DA0005AFE681CC5B2082DE4DB70BD70470000F8
:102DB00070B5002100230F22C47804B3154C246899
:102DC00004F4E064C4F5E064210AC1F10403CA40DC
:102DD000447804FA03F184781440214309010E4C2D
:102DE0000678A155047804F01F050124AC4005784D
:102DF0006D11AD0005F1E025C5F8004109E004784A
:102E000004F01F050124AC40044D0678761145F806
:102E1000264070BD0CED00E000E400E080E100E041
:102E200002490143024A1160704700000000FA05A0
:102E30000CED00E070B5022647480068447846482B
:102E40000068007800F07F00002844D1092C03D1ED
:102E500000F0B8FD06465FE0052C14D13E4800683E
:102E6000C0787F280BDC3C480068807838B93A4845
:102E70000068808818B938480068807A08B1082549
:102E800065E0002648E0032C0ED133480068C07886
:102E9000012807D130480068808818B900F0B6FDD5
:102EA000064639E0022637E0012C35D12A48006871
:102EB000C07801280DD128480068808848B9264884
:102EC0000068407A00F0200018B100F007FC0646C8
:102ED00022E0022620E020480068007800F07F0011
:102EE000012805D10B2C17D100F00CFE064613E08B
:102EF00019480068007800F07F0002280BD1012CEF
:102F000003D100F0EBFB064606E0032C04D100F0F1
:102F100091FD064600E002264EB1E0B20F4A12686B
:102F2000516988470646032E01D109250FE00EB1ED
:102F300008250CE0062500210948006880B2801CA5
:102F4000084A42F8101030200749088000BF0249A3
:102F500009680D7270BD00003C0100204001002096
:102F6000505C0040006000404E01002010B5114848
:102F70000068047A022C01D0042C01D1082412E04C
:102F8000032C01D0052C05D1FFF7C2F809480068D1
:102F9000047A08E0072C05D107490968C86880470A
:102FA000082400E00824034909680C7200F01AF8AC
:102FB00010BD00003C01002040010020F0B5561C6F
:102FC0007510074E06EB41042B4605E034F8047BF0
:102FD00020F8017B401C5B1E002BF7D1F0BD0000E8
:102FE0000060004010B50D4890F82C10002000F053
:102FF000D1F90B480068007A082805D14002094938
:10300000088010200849088005480068007A0928CF
:1030100001D1012010BD0020FCE70000A400002029
:103020003C0100204C0100204E01002010B5012081
:1030300001F0C6F901240B48046000200A49088009
:1030400008460088074908600020091D08604FF401
:10305000E0500549088008460088024908600020C1
:1030600010BD0000405C00404601002029B1064A26
:1030700052690243044B5A6104E0034A5269824395
:10308000014B5A61704700000010024029B1064A06
:10309000D2690243044BDA6104E0034AD2698243F5
:1030A000014BDA61704700000010024029B1064A66
:1030B00012690243044B1A6104E0034A1269824315
:1030C000014B1A61704700000010024029B1064A06
:1030D00092690243044B9A6104E0034A9269824375
:1030E000014B9A61704700000010024029B1064A66
:1030F000D2680243044BDA6004E0034AD268824398
:10310000014BDA60704700000010024030B500212A
:103110000022002400232D4D6D6805F00C0121B123
:10312000042905D0082923D105E0294D056022E0B6
:10313000274D05601FE0254D6D6805F47012234D85
:103140006D6805F48034022505EB92421CB9214DCF
:10315000554305600BE01D4D6D6805F400351DB14C
:103160001C4D5543056002E0194D5543056002E0D2
:10317000174D056000BF00BF144D6D6805F0F001EC
:103180000909154D6B5C0568DD4045600F4D6D68A4
:1031900005F4E061090A104D6B5C4568DD4085600F
:1031A0000A4D6D6805F46051C90A0B4D6B5C4568AA
:1031B000DD40C560054D6D6805F44041890B074D44
:1031C0006B5CC568B5FBF3F5056130BD00100240CE
:1031D00000127A0000093D00640100207401002003
:1031E0000149086070470000D800424270B50546AA
:1031F000072D01D02E4805702D48007808284ED2A2
:10320000DFE800F004111A202B384E4F29480068DF
:1032100028B900F053F806202549087002E005207F
:103220002349087041E000F049F804202049087063
:1032300001202049086038E002201D494870032021
:10324000087032E01A484078401E19494870084614
:10325000407808B90420087027E01748006884B255
:1032600044F01004144804600520114908700A2035
:1032700048701AE00E484078401E0D4948700846D4
:10328000407858B90C48006884B224F010040A4809
:1032900004600620087000200649086005E000BFB1
:1032A00000BF06200249087000BF00BF70BD0000CB
:1032B0002D01002030010020405C004010B507487F
:1032C000006884B224F0040404480460FFF7C6FADE
:1032D0004FF43F400149086010BD0000405C0040D1
:1032E00010B50948006805280CD108480168006835
:1032F000401C064A1060052904D1002011460860D0
:10330000FFF7B0F810BD0000280100204C0000209D
:103310004FF6F8710140014A11607047505C00405F
:1033200030B501460F4B1A78002014E003060E4C0E
:1033300004EB9353D3F8003C48F68F74234048F2D3
:1033400080042343C4B223430406074D05EB945481
:10335000C4F8003C401C9042E8D341F08003034C89
:10336000236030BDA0000020005000404C5C0040B5
:1033700010B54A105300054A126892B202EBC0021F
:10338000121D034C44F8123010BD0000505C004088
:103390000060004010B502460F48006880B200EBA4
:1033A000C200801D0D4C04EB40033E290BDD48118B
:1033B00001F01F040CB9441EA0B24FF4004444EACB
:1033C00080241C6007E0481001F001040CB1441C8B
:1033D000A0B284021C6010BD505C00400060004040
:1033E00030B50E4C04EB8003D3F8003C4BF68F74E1
:1033F00003EA040201F480530BB182F4805201F419
:1034000000530BB182F4005242F4004343F08003B6
:10341000024D05EB8004C4F8003C30BD0050004074
:1034200010B50B4B03EB8002D2F8002C4BF68F73D8
:1034300002EA030181F4805181F4005141F4004219
:1034400042F08002024C04EB8003C3F8002C10BD54
:103450000050004010B54A105200044B1B689BB24C
:1034600003EBC003024C44F8132010BD505C004035
:1034700000600040044A126892B202EBC002921C43
:10348000024B43F812107047505C0040006000404F
:1034900030B50E4C04EB8003D3F8003C48F6BF7403
:1034A00003EA040201F010030BB182F0100201F0F4
:1034B00020030BB182F0200242F4004343F080036A
:1034C000024D05EB8004C4F8003C30BD00500040C4
:1034D00010B50B4B03EB8002D2F8002C48F6BF73FB
:1034E00002EA030181F0100181F0200141F4004261
:1034F00042F08002024C04EB8003C3F8002C10BDA4
:103500000050004010B5074B03EB8002D2F8002CAE
:1035100048F68F131A400A43024C04EB8003C3F8A9
:10352000002C10BD0050004010B500F001F810BD97
:103530000CB50020019000903348006840F48030C2
:103540003149086000BF3048006800F40030009046
:103550000198401C0190009818B90198B0F5A06F2F
:10356000F1D12948006800F4003010B1012000902A
:1035700001E0002000900098012843D12348006812
:1035800040F01000214908600846006820F0030060
:1035900008600846006840F0020008601A48406869
:1035A000194948600846406848600846406840F449
:1035B000806048600846406820F47C1048600846F7
:1035C000406840F4E81048600846006840F08070A9
:1035D000086000BF0C48006800F000700028F9D0B7
:1035E0000948406820F003000749486008464068E1
:1035F00040F00200486000BF0348406800F00C0043
:103600000828F9D10CBD0000001002400020024043
:1036100010B50020FFF7E4FD0121C805FFF736FDD6
:1036200010BD000038B501242948006880B2001D93
:10363000284931F8100080B201EB40000090264884
:103640000068007A092832D0009800782249096879
:1036500008700098401C0090009800781E49096886
:1036600048700098401C0090009800EB44000090C7
:10367000009931F8020B0091FEF785FA16490968A6
:103680004880009800EB44000090009931F8020B4C
:103690000091FEF778FA104909688880009800EBDD
:1036A00044000090009800880B490968C8800120F8
:1036B00009490968087208480068C08810B9FFF70E
:1036C000B9FB01E0FEF782FDFFF78CFC38BD00007E
:1036D000505C0040006000403C0100202DE9F047B4
:1036E00054480068007800F07F08B8F1000F0AD154
:1036F00050480068407A00F0DF004E49096848727F
:103700000020BDE8F087B8F1020F7CD1494800687D
:10371000408818B947480068007908B10220F0E7EE
:10372000DFF8149143480068477927F080052C465C
:1037300040480068407900F0800038B13F4901EB13
:103740008400D0F8000C00F0300606E03B4901EBA5
:103750008400D0F8000C00F4405699F80000A8420C
:1037600004D91EB133480068807A08B90220C8E73E
:1037700007F0800080B1314901EB8400D0F8000CE3
:1037800000F0300010284BD1E0B2FEF761FBE0B250
:103790003021FFF77DFE43E0284901EB8400D0F89B
:1037A000000C00F44050B0F5805F39D1E4B9244AF0
:1037B00092F82C10E0B2FFF7EDFD204A02EB8401F5
:1037C000D1F8001C4BF68F7201EA020080F48050A1
:1037D00080F4005040F4004141F08001174B03EBAE
:1037E0008402C2F8001C1BE0E0B2FEF717FB134A8C
:1037F00002EB8401D1F8001C4BF68F7201EA020043
:1038000080F4805000E011E080F4005040F400416A
:1038100041F08001094B03EB8402C2F8001C00BF99
:10382000084909684869804700206AE700BF02200C
:1038300067E700003C010020A0000020005000408D
:10384000A40000204801002010B504462CB9012036
:10385000064909680882002010BD05490968086802
:103860008047024800680A30F6E700003C0100206B
:103870004801002010B5024606480068438A32B964
:103880008888C01A034C24682082002010BD086874
:103890001844FBE73C01002010B504462CB9012078
:1038A000064909680882002010BD05490968886832
:1038B0008047024800680C30F6E700003C01002019
:1038C0004801002010B504462CB902203949096886
:1038D0000882002010BD0020374908803548006864
:1038E000007800F07F0018BB32490968487A00F080
:1038F000200131B13049097841F002012E4A11709E
:1039000005E02D49097801F0FD012B4A117000F006
:10391000400131B12849097841F00101264A11706E
:1039200005E02549097801F0FE01234A11703AE0CB
:1039300020480068007800F07F00012801D11E486F
:10394000C8E71C480068007800F07F00022828D1F2
:10395000184A1268517901F00F0001F080027AB123
:10396000164B03EB8002D2F8002C02F03002102A32
:1039700016D1114A127842F001020F4B1A700FE073
:103980000E4B03EB8002D2F8002C02F44052B2F549
:10399000805F05D1084A127842F00102064B1A7086
:1039A00001E0002096E70649096808698047024857
:1039B00090E700003C01002034010020005000404E
:1039C0004801002010B50E480068C0780D494978BC
:1039D000884213DC0A480068807878B90848006893
:1039E000808858B906480068C07805490968887217
:1039F0000549096848688047002010BD0220FCE79F
:103A00003C010020A00000204801002010B507481C
:103A10000068407A40F0200004490968487204496F
:103A20000968C8698047002010BD00003C010020E3
:103A3000480100202DE9F0412E480068467926F023
:103A400080073C462B480068407900F0800038B180
:103A5000294901EB8400D0F8000C00F0300506E0A5
:103A6000254901EB8400D0F8000C00F440552348B0
:103A70000078A04208D91F480068408820B91DB1CD
:103A80001C480068807A10B90220BDE8F08106F079
:103A90008000A0B1184A02EB8401D1F8001C48F65E
:103AA000BF7201EA020080F0100040F4004141F0D2
:103AB0008001114B03EB8402C2F8001C14E00E4A93
:103AC00002EB8401D1F8001C4BF68F7201EA020070
:103AD00080F4805040F4004141F08001064B03EB3C
:103AE0008402C2F8001C00BF054909688869804744
:103AF0000020CAE73C01002000500040A000002048
:103B00004801002010B5174B1B68D978154B1B686E
:103B10005879154B1B689A6990470446114800680C
:103B2000807AE8B13CB90F480068007918B90D48AF
:103B30000068807808B1022010BD8CB90B49096873
:103B4000C868804707480068407906490968C87214
:103B500004480068C0780349096808730020EBE74F
:103B60000220E9E73C01002040010020480100203C
:103B700038B50025002000902148006884B200BFBD
:103B800009E0204901EB8500D0F8000C80B21E4905
:103B900041F825006D1C082DF3D344F480641848C7
:103BA000046044F00104046024F00104046000BFD8
:103BB0001348001D006800F480600028F8D04FF61C
:103BC000FF300F49091D0860002509E00E4850F834
:103BD000250080B20B4A02EB8501C1F8000C6D1C78
:103BE000082DF3D344F0080405480460006884B24B
:103BF00044F0040402480460FEF7DCFC38BD000019
:103C0000405C0040005000404C0D0020042808D1CA
:103C10004FF0E021096941F004014FF0E022116109
:103C200007E04FF0E021096921F004014FF0E022A4
:103C30001161704710B51348006840F00100114948
:103C4000086008464068104908400E494860084628
:103C500000680E4908400B4908600846006820F4D7
:103C6000802008600846406820F4FE0048604FF459
:103C70001F008860FFF758FC4FF00060044908609F
:103C800010BD0000001002400000FFF8FFFFF6FE2C
:103C900008ED00E000B591B001210420FFF716FA0D
:103CA00001218803FFF712FA01210846FFF7DEF928
:103CB0004FF48060ADF8300048208DF833000320C9
:103CC0008DF832000CA95748FEF78CFC4FF40070B9
:103CD000ADF8300018208DF8330003208DF8320045
:103CE0000CA95048FEF77EFC4F4800F043FA4FF411
:103CF000E1300D900020ADF83800ADF83A00ADF895
:103D00003C000C20ADF83E000020ADF840000DA9AD
:103D1000454800F0D9FA4448001D009043480190FE
:103D2000002002904FF480700390002004908020C7
:103D30000590002006900790202008904FF44050F6
:103D4000099000200A9069463948FEF760F9364824
:103D5000001D009037480190102002900001039050
:103D600000200490802005900020069007902020DD
:103D700008904FF44050099000200A9069462C4862
:103D80001438FEF744F90F208DF82C0000208DF830
:103D90002D008DF82E0001208DF82F000BA8FFF7C5
:103DA00007F80E208DF82C0000208DF82D00012042
:103DB0008DF82E008DF82F000BA8FEF7F9FF2520B7
:103DC0008DF82C0000208DF82D0001208DF82E009C
:103DD0008DF82F000BA8FEF7EBFF012240211248BF
:103DE00000F0BEF9012280210F4800F0B9F901214D
:103DF0000F48FEF7C7F800210D481438FEF7C2F847
:103E0000012202210A481438FEF7F8F8012240F294
:103E10002441054800F033FA0121034800F039F944
:103E200011B000BD000801400038014078010020B9
:103E300058000240780200202DE9F04107460E4666
:103E400000254FEA162800BF1CE000BF4FF40050C9
:103E5000FEF7A8F80028F9D1002405E004EB0520BE
:103E6000385C17490855641CFF2CF7D94FF4807152
:103E70001448FEF7EAF801211248FEF783F8A6F588
:103E800080766D1C4545E0D300BF4FF40050FEF72F
:103E900089F80028F9D1002405E004EB0520385CFE
:103EA00007490855641CB442F7D3B1B20548FEF780
:103EB000CCF801210348FEF765F8BDE8F081000069
:103EC000780200204400024070B50025002440F232
:103ED0002441164800F0A9F938B300211448FEF730
:103EE00051F84FF40030FEF731F81148FEF756F85C
:103EF000C0F58074002C00DA00244FF480710C4867
:103F0000FEF7A3F801210A48FEF73CF809492046CC
:103F1000094A12689047054800F042FAC5B200BF4E
:103F200040F22441014800F0A5F870BD003801407E
:103F300058000240780100201800002070477047A8
:103F400070B504460D464EF6602612E04EF6602629
:103F500004E00A2E00DA70BD701E86B28021084887
:103F600000F056F90028F4D02178054800F01DFA39
:103F7000641C281EA5F10105E8D100BFEBE7000095
:103F80000038014070B50025002440F22441164855
:103F900000F04BF938B300211448FDF7F3FF4FF45C
:103FA0000010FDF7D3FF1148FDF7F8FFC0F580744E
:103FB000002C00DA00244FF480710C48FEF745F81D
:103FC00001210A48FDF7DEFF09492046094A126827
:103FD0009047054800F0E4F9C5B200BF40F2244123
:103FE000014800F047F870BD004400406C000240FA
:103FF00078030020200000207047704770B500252E
:10400000002440F22441164800F00FF938B3002193
:104010001448FDF7B7FF4FF40070FDF797FF114804
:10402000FDF7BCFFC0F58074002C00DA00244FF4CB
:1040300080710C48FEF709F801210A48FDF7A2FF3C
:1040400009492046094A12689047054800F0A8F936
:10405000C5B200BF40F22441014800F00BF870BD2A
:104060000048004030000240780500202800002071
:104070007047704710B50022002340F66A14A14231
:1040800000D100BF0A1201249440A3B2DC43048093
:1040900010BD21B1828942F40052828104E08289FC
:1040A0004DF6FF731A4082817047000010B5002062
:1040B0000E49A1F80204A1F800040D4908800D483A
:1040C00001790DA0FCF70AF90A48417910A0FCF724
:1040D00005F90848817915A0FCF700F90548016841
:1040E00019A0FCF7FBF8012010BD000078070020A4
:1040F00030000020980000206C696E65636F646971
:104100006E672E666F726D61743A25640D0A000049
:104110006C696E65636F64696E672E706172697435
:1041200079747970653A25640D0A00006C696E65D2
:10413000636F64696E672E64617461747970653A47
:1041400025640D0A000000006C696E65636F646988
:104150006E672E626974726174653A25640D0A0097
:104160001AB1838A0B43838202E0838A8B43838262
:104170007047000010B504462048844209D101214F
:104180008803FEF7B3FF00214FF48040FEF7AEFF37
:1041900032E01B48844209D101214804FEF786FF22
:1041A00000214FF40030FEF781FF25E015488442DE
:1041B00009D101218804FEF779FF00214FF4802006
:1041C000FEF774FF18E01048844209D10121C804A9
:1041D000FEF76CFF00214FF40020FEF767FF0BE0B5
:1041E0000A48844208D101210805FEF75FFF00213B
:1041F0004FF48010FEF75AFF10BD00000038014058
:104200000044004000480040004C00400050004086
:1042100002460020B1F5007F00D100BF13880B409B
:104220000BB1012000E00020704770B50246002469
:1042300000230025002040F66A16B14200D100BFDD
:10424000C1F3421501F01F03012606FA03F3012D05
:1042500002D19689334006E0022D02D1168A3340FE
:1042600001E0968A33400C12012606FA04F41688FF
:10427000344013B10CB1012000E0002070BDF0B556
:104280000346002400260025002040F66A17B942A4
:1042900000D100BF1846C1F3421401F01F060127E8
:1042A00007FA06F5012C01D10C3004E0022C01D1F3
:1042B000103000E014301AB107682F43076002E0A5
:1042C0000768AF430760F0BD2DE9F04786B00546AB
:1042D0000E460024A24600BFA1460027B08900B1C7
:1042E00000BF2F462C8A4CF6FF700440F088044330
:1042F0002C82AC894EF6F3100440B0883189084313
:10430000718908430443AC81AC8A4FF6FF400440F6
:10431000B0890443AC8201A8FEF7F8FE1F4887422B
:1043200002D1DDF810A001E0DDF80CA0A88900F4AE
:10433000004040B10AEBCA0000EB0A1031684900A6
:10434000B0FBF1F807E00AEBCA0000EB0A10316895
:104350008900B0FBF1F86420B8FBF0F004012009FB
:10436000642101FB1089A88900F4004040B132208B
:1043700000EBC900B0FBF1F000F00700044308E0D7
:10438000322000EB09106421B0FBF1F000F00F00C7
:1043900004432C8106B0BDE8F087000000380140DE
:1043A00001468888C0F308007047C1F30802828084
:1043B000704710B54FF48020FEF7ACF810BD000038
:1043C00010B504461CB104A0FBF788FF02E008A06A
:1043D000FBF784FF10BD00007573622070756C6C74
:1043E00020757020656E61626C650D0A000000002A
:1043F0007573622070756C6C2075702064697361D0
:10440000626C650D0A00000010B508480849086094
:1044100002200968087207480749086007480849E8
:104420000860054909680868804710BD6C0D0020C8
:104430003C010020A400002040010020D400002006
:10444000480100200EB54FF48020FEF763F84FF4CA
:104450008020009008208DF8050001208DF80600CE
:104460006846FEF75DF814208DF8080001208DF8ED
:10447000090000208DF80A0001208DF80B0002A829
:10448000FEF796FC2A208DF8080000208DF8090020
:1044900002A8FEF78DFC0EBD10B588B00024694857
:1044A0000068694908800846008800F40070674980
:1044B0000988084050B14FF6FF50624908606448CF
:1044C0000078401C62490870FEF70AFF5E480088C9
:1044D00000F400405D490988084008B1FDF75AFB27
:1044E0005948008800F4806058490988084030B174
:1044F0004FF6FF3053490860564948688047524894
:10450000008800F4005051490988084018B14DF660
:10451000FF704C4908604C48008800F480504B49BB
:104520000988084030B14EF6FF7046490860002007
:10453000FEF75CFE4448008800F4006043490988A7
:10454000084060B14448007810B1FFF711FB02E069
:104550000220FEF74BFE4FF2FF703A4908603A48DE
:10456000008800F48070394909880840002866D026
:104570004FF6FF6033490860081D006800F40040F2
:10458000002856D035480068401C34490860084669
:104590000068032850D92B48001F006800F008006D
:1045A000002849D12748001F006880B22C490860C4
:1045B000002408E02B4901EB8400D0F8000C80B205
:1045C0004DF82400641C082CF4D32548006840F002
:1045D0000100234908600846006880B21949091F94
:1045E00008601F48006820F001001D490860084667
:1045F000006880B21349091F086000BF11480068B5
:1046000000F480600028F9D04FF6FF300D490860B3
:10461000002408E05DF8240080B2124A02EB840115
:10462000C1F8000C641C082CF4D300200B4908606E
:1046300002E00020094908600720FEF7D7FD08B016
:1046400010BD0000445C00405000002046010020E6
:1046500052000020A40000202C0100205400002063
:10466000580000200050004010B5FFF715FF10BDA6
:1046700010B5044601210420FEF728FD3CB1104886
:10468000006880B220F002000D49086016E00C4876
:10469000006880B240F002000949086009480068DB
:1046A00020F47F20074908600846006840F44C3039
:1046B000086000220C211046FEF7CDF910BD000065
:1046C000405C0040040801400020064908604FF4A7
:1046D0003F4005490880084600880249091F0860D4
:1046E00000207047445C0040460100202DE9F04165
:1046F00004460E46002504F07F00FEF71BF8054631
:1047000004F07F00FEF706F807462A463946304691
:10471000FEF754FC2846BDE8F081000030B50346A2
:104720000A46002133E0585C1A4C248804F4004403
:104730005CBB184C248804F4804464B10A2803D07C
:104740000024144D2C8020E0124C248844F40044B2
:10475000104D2C8019E00D2806D10E4C248844F40D
:1047600080440C4D2C8010E00A4C2488C4F30D04C6
:10477000094D2855074C2488641C064D2C802C4676
:104780002488C72C01DD00242C804C1CE1B291420E
:10479000C9DB30BD30000020440C00200A49B1F8CC
:1047A0000014094A50541146B1F80014491CA2F8EB
:1047B00000141146B1F80014B1F5806F02D1002148
:1047C000A2F800147047000078070020F0B51446E6
:1047D00004F1010C4FEA6C07DFF824C00CEB410335
:1047E0003D460AE00678401C90F800C046EA0C22DC
:1047F00023F8022B9B1C401C6D1E002DF2D1F0BD36
:104800000060004070B504460025212C08D11248F4
:104810000068007800F07F0021280ED10F4D0CE0D9
:10482000202C0AD10C480068007800F07F00212875
:1048300000D10B4D20200B4908700DB9022070BD2E
:104840000548006885610021034800684182002016
:10485000A8470020F3E700003C0100209148000831
:10486000214A00089400002010B504460249204661
:10487000FFF700F810BD00000001002010B504464D
:1048800002492046FEF7F6FF10BD0000F8000020A8
:10489000014629B90820034A126810820020704797
:1048A0000148FCE73C0100209800002070B5054657
:1048B00006480068C478042C01DD002070BD04485F
:1048C00000EBC4012846FEF7D5FFF7E73C010020C6
:1048D000080100200246002901DD02207047012A5C
:1048E00001DD0220FAE70020F8E700000146084851
:1048F0000068007800F07F00212807D1022901D14B
:1049000000207047222901D10020FAE70220F8E7B1
:104910003C01002010B500203449096888723448F1
:10492000C079324909684872002030490968C87264
:10493000FEF7EEFC4FF400710020FEF7E3FD1021BE
:104940000020FEF7A5FD40210020FEF711FD80218B
:104950000020FEF77FFD0020FDF794FA254890F82F
:104960002C100020FEF716FD0020FEF759FD002157
:104970000120FEF7C7FDC0210120FEF76BFD2021BD
:104980000120FEF785FD00210120FEF729FD4FF4EF
:10499000C0610220FEF7B6FD4FF480710220FEF7E1
:1049A00059FD00210220FEF71BFD20210220FEF709
:1049B0006FFD00210320FEF7A5FD4FF48871032051
:1049C000FEF7D6FC40210320FEF7E4FC4FF44051F3
:1049D0000320FEF705FD00210320FEF759FD00200E
:1049E000FEF79EFC01200449086010BD3C01002038
:1049F0006A4E0008A4000020280100200348817AA4
:104A000011B10521024A1160704700006C0D0020B1
:104A10002801002004200149086070472801002077
:104A2000014629B90820034A126810820020704705
:104A30000148FCE73C0100209800002010B5054823
:104A40000078202804D1FFF731FB002001490870CD
:104A500010BD0000940000207047000010B5FDF765
:104A60008BFE0020054909688872FEF7DFFAFFF720
:104A70002BFE00200249086010BD00003C01002010
:104A800028010020490050EAC12018BF04204A0D27
:104A900018BF40F0010040F2FF72B2EB515F08BF57
:104AA00040F00200012808BF0520704730380A286E
:104AB00001D2012070470020704700BF704710B539
:104AC00001460022002300E0491C08782028FBD082
:104AD00008782D2802D008782B2804D108782D28B2
:104AE00000D10123491C0CE0087802EB820400EBA2
:104AF0004400A0F13002491C002A02DA6FF00042A3
:104B000005E00878302802DB08783928ECDD00BFA2
:104B100013B14FF0FF3000E00120504310BD000002
:104B200010B56FF00400FFF771F8074800680749F7
:104B3000B0FBF1F006490860084600684FF47A714E
:104B400048430449086010BD5001002000127A005B
:104B50000C0000201000002070B50446B4F57A7FE8
:104B60000ED94FF47A70B4FBF0F0C6B203E04FF404
:104B70007A70FFF7F1FF301EA6F10101CEB2F6D137
:104B80001148006860434FF0E021486100208861CF
:104B90000846006940F00100086100BF4FF0E020C6
:104BA000056905F0010018B105F480300028F5D042
:104BB0004FF0E020006920F001004FF0E021086193
:104BC0000020886170BD00001000002010B5002199
:104BD00006E0092200BF131EA2F10102FBD1491C0D
:104BE0008142F6D310BD704700BF054A128802F01B
:104BF0004002002AF9D0C2B2014B1B1D1A80704737
:104C0000003801407047F0B503460D4616460027B0
:104C100029460A2E03D0002008702846F0BD33B97B
:104C2000302001F8010B002008702846F6E7002B21
:104C300003DA2D2001F8010B5B4242F210720DE005
:104C400093FBF2F404B937B104F1300001F8010B21
:104C500004FB123301270A2092FBF0F2002AEFDC5A
:104C6000002008702846D9E79AB06426FEF7E2FFD4
:104C70004FF4A060FEF7D4F801210846FEF726FAAB
:104C8000FFF74EFF0220FDF7B7FE0D210220FDF7D2
:104C90003BFE00220D210220FDF7DDFE0020FDF786
:104CA000ABFE012200210846FDF70AFE002108465E
:104CB000FDF7F4FD0446FEF7EDFF2B482B49086095
:104CC0002B482C490860002201A93046FFF79BFFC2
:104CD00029A0FFF7F4FE2A48FDF730FF01226821E2
:104CE0002748FDF793FF0020FFF7C2FC4FF42F7019
:104CF000FFF732FF0120FFF7BBFCFEF789FCFFF74F
:104D0000A1FBFFF781FB2DE003211EA0FFF718F99F
:104D1000C820FFF721FF03211BA0FFF78DF8C82053
:104D2000FFF71AFF19A000F049F81B48008800F4AB
:104D30000040B8B118480088C0F30D05294617A0F7
:104D400000F03CF8002405E01B49085DFFF726FD54
:104D5000601CC4B2AC42F7D315A000F02FF80020BD
:104D60000D490880D0E70000054C0008180000201D
:104D7000E74B00081C0000202D31383900000000EE
:104D800004000020414243004445460077616974B5
:104D90002E2E2E0D0A000000300000200D0A796F23
:104DA00075206172652073656E64696E673A25646B
:104DB0000D0A0D0A00000000440C00200FB438B5A5
:104DC00005A800900B48009A0499FBF775FA00209B
:104DD00000900848FBF78EFB85B2002405E00549EA
:104DE000085DFFF7DBFC601C84B2AC42F7DB38BC2B
:104DF0005DF814FB7C0B002010B500290AD0087860
:104E0000002807D005487844FCF7C2FA002801D0F2
:104E1000002010BD0248784410BD000022020000AE
:104E20001A02000010B500290AD00878002807D01F
:104E300005487844FCF7ACFA002801D0002010BDEA
:104E40000248784410BD0000120200000A0200006F
:104E5000FBF7ACBEFBF7E0BF12010002020000400E
:104E600083044057000201020301090243000201CA
:104E700000C03209040000010202010005240010F4
:104E80000105240100010424020205240600010793
:104E90000582030800FF09040100020A0000000760
:104EA00005030240000007058102400000040309D9
:104EB000042603530054004D006900630072006F24
:104EC0000065006C0065006300740072006F006E86
:104ED000006900630073003203530054004D003337
:104EE00000320020005600690072007400750061F5
:104EF000006C00200043004F004D00200050006F68
:104F0000007200740020002000040000080000006F
:104F1000000000000200010000100000000000007E
:104F200000000000303132333435363738394142F1
:104F300043444546403058003031323334353637FB
:104F400038396162636465664030780030313233ED
:104F5000343536373839616263646566787000309D
:104F60003132333435363738394142434445465877
:104F70005000000002400000000000A000000000FF
:104F800005400000000000C8000000000C400000C8
:104F90000000409C00000000194000000020BCBE42
:104FA0000000000034400000BFC91B8E0000000458
:104FB000B5400000504BCFD06607E2CF01000000A3
:104FC0006C4100003E8251AADFEEA73401000000D0
:104FD000D9420000DCB5A0E23A301F97FFFFFFFF87
:104FE000B4450000FD25A0C8E9A3C14FFFFFFFFFA6
:104FF000FF3F00000000008000000000FF3F0000B5
:105000000000008000000000545100080000002053
:1050100078010000280100080052000878010020F3
:1050200070120000840100081C0000004300000012
:10503000F8FFFFFF0C0000000E0000000F00000052
:105040002E0000001001000043000000F8FFFFFFE9
:10505000004040404040404040404141414141408B
:105060004040404040404040404040404040404040
:1050700040050202020202020202020202020202CF
:1050800002202020202020202020200202020202D4
:10509000020290909090909010101010101010102C
:1050A0001010101010101010101010100202020238
:1050B000020288888888888808080808080808087C
:1050C0000808080808080808080808080202020278
:1050D0004000000000000000000000000000000090
:1050E00000000000000000000000000000000000C0
:1050F00000000000000000000000000000000000B0
:10510000000000000000000000000000000000009F
:10511000000000000000000000000000000000008F
:10512000000000000000000000000000000000007F
:10513000000000000000000000000000000000006F
:10514000000000000000000000000000000000005F
:10515000000000006114040401D205133D3F1B0848
:105160003F041AF9041AFB041371401B087304214D
:10517000141A03531254124D1233021F32136524B2
:105180000C1C08AD2D040A11F5245133C20112087C
:10519000199911135D4A140815491B083D081A593D
:1051A000041305481B08ED041AD5041A7D041A6976
:1051B000041AAD0441324029441AFD300916741A0C
:1051C000154413584E3308121A6A082A4334190832
:1051D00032041AB10832261AD70829E019047320BC
:1051E0001A299201212BA24A474930680802030478
:1051F000060708090C6910050002040608000000F3
:04000005080000ED02
:00000001FF
