:020000040800F2
:10000000B80C002089010008910100089301000844
:100010009501000897010008990100080000000000
:100020000000000000000000000000009B0100082C
:100030009D010008000000009F010008A1010008C8
:10004000A3010008A3010008A3010008A301000800
:10005000A3010008A3010008A3010008A3010008F0
:10006000A3010008A3010008A3010008A3010008E0
:1000700039020008A301000869020008A301000872
:10008000A3010008A1020008A3010008A3010008C1
:10009000A3010008A3010008A3010008A3010008B0
:1000A000A3010008A3010008A3010008A3010008A0
:1000B000A3010008A3010008A3010008A301000890
:1000C000A3010008A3010008A3010008A301000880
:1000D000A3010008950F000851100008C91000087E
:1000E000A3010008A3010008A301000800F002F822
:1000F00000F03AF80AA090E8000C82448344AAF188
:100100000107DA4501D100F02FF8AFF2090EBAE885
:100110000F0013F0010F18BFFB1A43F0010318473B
:10012000F814000018150000103A24BF78C878C1F0
:10013000FAD8520724BF30C830C144BF04680C60ED
:10014000704700000023002400250026103A28BF35
:1001500078C1FBD8520728BF30C148BF0B60704739
:100160001FB51FBD10B510BD00F033F81146FFF7E5
:10017000F7FF01F0F1F900F051F803B4FFF7F2FFD7
:1001800003BC01F020F900000948804709480047F6
:10019000FEE7FEE7FEE7FEE7FEE7FEE7FEE7FEE737
:1001A000FEE7FEE704480549054A064B7047000094
:1001B000010D0008ED000008B8060020B80C002072
:1001C000B8080020B8080020704770477047704793
:1001D0007047754600F02CF8AE4605006946534658
:1001E00020F00700854618B020B5FFF7DBFFBDE81B
:1001F00020404FF000064FF000074FF000084FF08E
:10020000000B21F00701AC46ACE8C009ACE8C0091E
:10021000ACE8C009ACE8C0098D46704710B504468B
:10022000AFF300802046BDE81040FFF7A6BF0000F6
:10023000004870475406002010B5202000F08EF8CA
:1002400001280CD10021064800F062F8054800683A
:100250008047202000F040F8202000F04BF810BD2F
:100260001C0002402800002010B54FF4005000F0A0
:1002700075F801280ED10021074800F049F8074819
:10028000006880474FF4005000F026F84FF400500B
:1002900000F030F810BD00004400024018000020BB
:1002A00010B54FF0007000F059F801280ED1002170
:1002B000074800F02DF80748006880474FF00070AD
:1002C00000F00AF84FF0007000F014F810BD0000C4
:1002D000800002402000002000F0805111B103494D
:1002E000086001E0024948607047000004040240D1
:1002F0000000024000F0805111B10349086001E0A4
:1003000002494860704700000404024000000240B7
:1003100021B1026842F00102026004E002684FF677
:10032000FE731A40026070470146486880B2704709
:1003300001460020002201F0805313B1054B1A68DA
:1003400001E0054B1A6802EA01030BB1012000E04D
:1003500000207047000402400000024001460020D7
:10036000002201F0805313B1054B1A6801E0054BE0
:100370001A6802EA01030BB1012000E00020704777
:1003800000040240000002401AB103680B430360FE
:1003900002E003688B430360704710B500220268D7
:1003A00047F6F0739A430C6A8B6823430C69234326
:1003B0004C6923438C692343CC6923434C6A234310
:1003C0008C6A23431A430260CB6843600B688360E6
:1003D0004B68C36010BD416070472DE9F041024693
:1003E00000250026002000230024002791F803C0E8
:1003F0000CF00F0591F803C00CF0100CBCF1000FCD
:1004000003D091F802C04CEA050591F800C0BCF198
:10041000000F31D0146800202BE04FF0010C0CFAD3
:1004200000F3B1F800C00CEA03069E4220D183001D
:100430004FF00F0C0CFA03F7BC4305FA03FC4CEA2F
:10044000040491F803C0BCF1280F06D14FF0010C51
:100450000CFA00FCC2F814C00AE091F803C0BCF129
:10046000480F05D14FF0010C0CFA00FCC2F810C087
:10047000401C0828D1D31460B1F800C0BCF1FF0FB4
:1004800034DD546800202EE000F1080C4FF0010824
:1004900008FA0CF3B1F800C00CEA03069E4221D121
:1004A00083004FF00F0C0CFA03F7BC4305FA03FC72
:1004B0004CEA040491F803C0BCF1280F05D100F107
:1004C000080C08FA0CF8C2F8148091F803C0BCF1CB
:1004D000480F07D100F1080C4FF0010808FA0CF89A
:1004E000C2F81080401C0828CED35460BDE8F081CB
:1004F0000246002093680B400BB1012000E0002071
:10050000704741617047016170472DE9F041054630
:100510000C46284600F07EF80646204600F043F8D8
:10052000074639463046FFF7E3FFBDE8F0812DE985
:10053000F84307460D461646384600F06BF88146EC
:10054000284600F030F880461EB1012E03D1482421
:1005500003E0282401E0042400BF00BF8DF803401D
:1005600003208DF80200ADF8008069464846FFF789
:1005700034FFBDE8F883F8B505460C46284600F080
:1005800049F80746204600F00EF8064610208DF880
:10059000030003208DF80200ADF80060694638467C
:1005A000FFF71BFFF8BD0146102931D2DFE801F04B
:1005B000080A0C0E10121416181B1E2124272A2DAF
:1005C000012070470220FCE70420FAE70820F8E742
:1005D0001020F6E72020F4E74020F2E78020F0E743
:1005E0004FF48070EDE74FF40070EAE74FF480605D
:1005F000E7E74FF40060E4E74FF48050E1E74FF4A1
:100600000050DEE74FF48040DBE74FF40040D8E7CE
:100610000120D6E70146072913D2DFE801F00406DE
:10062000080A0C0E1000084870470848FCE7084804
:10063000FAE70848F8E70848F6E70848F4E7084802
:10064000F2E70748F0E7000000080140000C014015
:10065000001001400014014000180140001C01403E
:100660000020014010B50446072C28D2DFE804F032
:1006700004090E13181D22000121042000F02EFA97
:100680001DE00121082000F029FA18E001211020C6
:1006900000F024FA13E00121202000F01FFA0EE000
:1006A0000121402000F01AFA09E00121802000F029
:1006B00015FA04E00121080200F010FA00BF00BFA3
:1006C00010BD2DE9F04106460C4615463046FFF7B1
:1006D000A1FF80462046FFF766FF074625B9394649
:1006E0004046FFF70EFF03E039464046FFF70BFF99
:1006F000BDE8F08110B50446204600F070F8E178BE
:1007000060780022FFF7DDFFA17820780022FFF754
:10071000D8FFE08800F0E0FEA17820780122FFF702
:10072000D0FFE08800F0D8FEE17860780122FFF782
:10073000C8FFE08800F0D0FE10BD10B50446E17897
:100740006078FFF7E2FE10BD70B504460025204634
:1007500000F022F80121204600F0C9F8022000F044
:10076000BBFEA17820780122FFF7ABFF022000F04A
:10077000B3FE05E0681CC5B2FA2D01DD012070BD95
:100780002046FFF7DAFF0028F4D1A1782078002274
:10079000FFF797FF0020F2E710B50446E178607894
:1007A0000122FFF7C4FE10BD10B504462078FFF704
:1007B00059FF6078FFF756FFA1782078FFF7DBFE3E
:1007C000E1786078FFF7D7FEA17820780122FFF763
:1007D00078FFE17860780122FFF773FF10BD10B554
:1007E0000446E1786078FFF7C6FE10BD70B5044698
:1007F000002600BF2046FFF7CFFF2079E0B9002593
:1008000017E02046FFF799FFA8403043C6B2E088C2
:1008100000F062FEA17820780122FFF752FFE08805
:1008200000F05AFEA17820780022FFF74AFF681CEA
:10083000C5B2082DE5DB1DE0002519E02046FFF7D5
:100840007CFFC5F1070188403043C6B2E08800F064
:1008500043FEA17820780122FFF733FFE08800F003
:100860003BFEA17820780022FFF72BFF681CC5B261
:10087000082DE3DB304670BD2DE9F04107460C46FC
:1008800016460025A846384600F060F8002040EAE9
:100890004400C1B2384600F07CF83846FFF754FFF8
:1008A0002844C5B23146384600F073F83846FFF7A1
:1008B0004BFF2844C5B2384600F048F8012000EB51
:1008C0004400C1B2384600F064F83846FFF73CFFF8
:1008D0002844C5B23846FFF789FF8046384600F005
:1008E00016F83846FFF706FF4046BDE8F08170B5C0
:1008F00004460D462DB9E17860780022FFF7E1FE4D
:1009000004E0E17860780122FFF7DBFE70BD10B5EE
:100910000446A17820780022FFF7D3FE2046FFF797
:100920005EFF01212046FFF7E2FFE08800F0D4FDE2
:10093000A17820780122FFF7C4FEE08800F0CCFD0A
:10094000A17820780022FFF7BCFE10BD10B5044648
:100950002046FFF744FFA17820780122FFF7B1FE7F
:10096000E17860780122FFF7ACFEE08800F0B4FD8A
:10097000E17860780022FFF7A4FEE08800F0ACFD8B
:10098000A17820780022FFF79CFEE08800F0A4FD0B
:1009900010BD70B504460E462046FFF720FF2079B3
:1009A000E0B9002517E006F001012046FFF79FFFA0
:1009B0007610E08800F090FDA17820780122FFF702
:1009C00080FEE08800F088FDA17820780022FFF703
:1009D00078FE681CC5B2082DE5DB1CE0002518E098
:1009E00006F080012046FFF782FF7006060EE088C1
:1009F00000F072FDA17820780122FFF762FEE08806
:100A000000F06AFDA17820780022FFF75AFE681CEA
:100A1000C5B2082DE4DB70BD70B5002100230F22A4
:100A2000C47804B3154C246804F4E064C4F5E064AD
:100A3000210AC1F10403CA40447804FA03F184781E
:100A40001440214309010E4C0678A155047804F0A6
:100A50001F050124AC4005786D11AD0005F1E025BE
:100A6000C5F8004109E0047804F01F050124AC40FA
:100A7000044D0678761145F8264070BD0CED00E077
:100A800000E400E080E100E002490143024A116015
:100A9000704700000000FA050CED00E029B1064A9D
:100AA00052690243044B5A6104E0034A526982438B
:100AB000014B5A61704700000010024029B1064AFC
:100AC00012690243044B1A6104E0034A126982432B
:100AD000014B1A61704700000010024029B1064A1C
:100AE00092690243044B9A6104E0034A926982438B
:100AF000014B9A61704700000010024029B1064A7C
:100B0000D2680243044BDA6004E0034AD2688243AD
:100B1000014BDA60704700000010024030B5002140
:100B20000022002400232D4D6D6805F00C0121B139
:100B3000042905D0082923D105E0294D056022E0CC
:100B4000274D05601FE0254D6D6805F47012234D9B
:100B50006D6805F48034022505EB92421CB9214DE5
:100B6000554305600BE01D4D6D6805F400351DB162
:100B70001C4D5543056002E0194D5543056002E0E8
:100B8000174D056000BF00BF144D6D6805F0F00102
:100B90000909154D6B5C0568DD4045600F4D6D68BA
:100BA00005F4E061090A104D6B5C4568DD40856025
:100BB0000A4D6D6805F46051C90A0B4D6B5C4568C0
:100BC000DD40C560054D6D6805F44041890B074D5A
:100BD0006B5CC568B5FBF3F5056130BD00100240E4
:100BE00000127A0000093D002C0000203C0000208B
:100BF00010B500F001F810BD0CB500200190009078
:100C00003348006840F480303149086000BF304804
:100C1000006800F4003000900198401C019000989A
:100C200018B90198B0F5A06FF1D12948006800F417
:100C3000003010B10120009001E0002000900098E9
:100C4000012843D12348006840F010002149086082
:100C50000846006820F0030008600846006840F07D
:100C6000020008601A484068194948600846406810
:100C700048600846406840F4806048600846406824
:100C800020F47C1048600846406840F4E810486052
:100C90000846006840F08070086000BF0C4800689B
:100CA00000F000700028F9D00948406820F00300E7
:100CB000074948600846406840F00200486000BFAD
:100CC0000348406800F00C000828F9D10CBD000072
:100CD0000010024000200240042808D14FF0E0211B
:100CE000096941F004014FF0E022116107E04FF083
:100CF000E021096921F004014FF0E0221161704701
:100D000010B51348006840F001001149086008461A
:100D10004068104908400E494860084600680E497E
:100D200008400B4908600846006820F480200860ED
:100D30000846406820F4FE0048604FF41F008860B9
:100D4000FFF756FF4FF000600449086010BD000037
:100D5000001002400000FFF8FFFFF6FE08ED00E083
:100D600000B591B001210420FFF7B8FE01218803EE
:100D7000FFF7B4FE01210846FFF790FE4FF48060B4
:100D8000ADF8300048208DF8330003208DF8320094
:100D90000CA95748FFF721FB4FF40070ADF8300065
:100DA00018208DF8330003208DF832000CA950482C
:100DB000FFF713FB4F4800F0E7F94FF4E1300D90D7
:100DC0000020ADF83800ADF83A00ADF83C000C203A
:100DD000ADF83E000020ADF840000DA9454800F0F8
:100DE0007DFA4448001D0090434801900020029085
:100DF0004FF4807003900020049080200590002024
:100E000006900790202008904FF440500990002051
:100E10000A9069463948FFF7C0FA3648001D00902D
:100E200037480190102002900001039000200490A8
:100E300080200590002006900790202008904FF415
:100E40004050099000200A9069462C481438FFF75A
:100E5000A4FA0F208DF82C0000208DF82D008DF8BD
:100E60002E0001208DF82F000BA8FFF7D5FD0E20D6
:100E70008DF82C0000208DF82D0001208DF82E001B
:100E80008DF82F000BA8FFF7C7FD25208DF82C004B
:100E900000208DF82D0001208DF82E008DF82F00F8
:100EA0000BA8FFF7B9FD01224021124800F063F9B9
:100EB000012280210F4800F05EF901210F48FFF761
:100EC00027FA00210D481438FFF722FA01220221E7
:100ED0000A481438FFF758FA012240F22441054825
:100EE00000F0D7F90121034800F039F911B000BD35
:100EF0000008014000380140540000205800024022
:100F0000540100202DE9F04107460E4600254FEA26
:100F1000162800BF1CE000BF4FF40050FFF708FA8E
:100F20000028F9D1002405E004EB0520385C1749BE
:100F30000855641CFF2CF7D94FF480711448FFF753
:100F40004AFA01211248FFF7E3F9A6F580766D1CF5
:100F50004545E0D300BF4FF40050FFF7E9F9002802
:100F6000F9D1002405E004EB0520385C0749085559
:100F7000641CB442F7D3B1B20548FFF72CFA012143
:100F80000348FFF7C5F9BDE8F081000054010020D7
:100F90004400024070B50025002440F22441164868
:100FA00000F04DF938B300211448FFF7B1F94FF4C0
:100FB0000030FFF791F91148FFF7B6F9C0F58074DA
:100FC000002C00DA00244FF480710C48FFF703FA7C
:100FD00001210A48FFF79CF909492046094A12688D
:100FE0009047054800F0E6F9C5B200BF40F2244141
:100FF000014800F0A5F870BD0038014058000240DB
:1010000054000020140000207047704770B504465B
:101010000D464EF6602612E04EF6602604E00A2EDB
:1010200000DA70BD701E86B28021084800F0FAF820
:101030000028F4D02178054800F0C1F9641C281E6E
:10104000A5F10105E8D100BFEBE700000038014041
:1010500070B50025002440F22441164800F0EFF856
:1010600038B300211448FFF753F94FF40010FFF78D
:1010700033F91148FFF758F9C0F58074002C00DAF5
:1010800000244FF480710C48FFF7A5F901210A48AC
:10109000FFF73EF909492046094A1268904705487A
:1010A00000F088F9C5B200BF40F22441014800F0C9
:1010B00047F870BD004400406C000240540200201C
:1010C0001C0000207047704770B50025002440F2D6
:1010D0002441164800F0B3F838B300211448FFF754
:1010E00017F94FF40070FFF7F7F81148FFF71CF9F4
:1010F000C0F58074002C00DA00244FF480710C4895
:10110000FFF769F901210A48FFF702F9094920466A
:10111000094A12689047054800F04CF9C5B200BF73
:1011200040F22441014800F00BF870BD0048004037
:101130003000024054040020240000207047704713
:1011400010B50022002340F66A14A14200D100BF6E
:101150000A1201249440A3B2DC43048010BD21B1E3
:10116000828942F40052828104E082894DF6FF7345
:101170001A40828170471AB1838A0B43838202E04E
:10118000838A8B438382704710B50446204884428B
:1011900009D101218803FFF7B1FC00214FF4804001
:1011A000FFF7ACFC32E01B48844209D1012148041E
:1011B000FFF784FC00214FF40030FFF77FFC25E0AF
:1011C0001548844209D101218804FFF777FC0021EA
:1011D0004FF48020FFF772FC18E01048844209D1D8
:1011E0000121C804FFF76AFC00214FF40020FFF73B
:1011F00065FC0BE00A48844208D101210805FFF78D
:101200005DFC00214FF48010FFF758FC10BD00007A
:10121000003801400044004000480040004C0040BD
:101220000050004002460020B1F5007F00D100BF11
:1012300013880B400BB1012000E00020704770B50F
:101240000246002400230025002040F66A16B14221
:1012500000D100BFC1F3421501F01F03012606FAB9
:1012600003F3012D02D19689334006E0022D02D10D
:10127000168A334001E0968A33400C12012606FAA2
:1012800004F41688344013B10CB1012000E00020B2
:1012900070BDF0B50346002400260025002040F66E
:1012A0006A17B94200D100BF1846C1F3421401F0D9
:1012B0001F06012707FA06F5012C01D10C3004E0C6
:1012C000022C01D1103000E014301AB107682F430E
:1012D000076002E00768AF430760F0BD2DE9F04703
:1012E00086B005460E460024A24600BFA146002750
:1012F000B08900B100BF2F462C8A4CF6FF70044025
:10130000F08804432C82AC894EF6F3100440B08878
:1013100031890843718908430443AC81AC8A4FF694
:10132000FF400440B0890443AC8201A8FFF7F6FBFC
:101330001F48874202D1DDF810A001E0DDF80CA0C3
:10134000A88900F4004040B10AEBCA0000EB0A1083
:1013500031684900B0FBF1F807E00AEBCA0000EB86
:101360000A1031688900B0FBF1F86420B8FBF0F096
:1013700004012009642101FB1089A88900F40040C0
:1013800040B1322000EBC900B0FBF1F000F00700E3
:10139000044308E0322000EB09106421B0FBF1F0B7
:1013A00000F00F0004432C8106B0BDE8F087000078
:1013B0000038014001468888C0F308007047C1F337
:1013C00008028280704700BF704710B501460022B6
:1013D000002300E0491C08782028FBD008782D283D
:1013E00002D008782B2804D108782D2800D10123B9
:1013F000491C0CE0087802EB820400EB4400A0F1E9
:101400003002491C002A02DA6FF0004205E0087839
:10141000302802DB08783928ECDD00BF13B14FF02B
:10142000FF3000E00120504310BD000010B56FF008
:101430000400FFF751FC074800680749B0FBF1F0D2
:1014400006490860084600684FF47A714843044929
:10145000086010BD4000002000127A000C0000203F
:101460001000002070B50446B4F57A7F0ED94FF411
:101470007A70B4FBF0F0C6B203E04FF47A70FFF775
:10148000F1FF301EA6F10101CEB2F6D1114800687D
:1014900060434FF0E0214861002088610846006900
:1014A00040F00100086100BF4FF0E020056905F041
:1014B000010018B105F480300028F5D04FF0E0208D
:1014C000006920F001004FF0E021086100208861F0
:1014D00070BD00001000002010B5002106E00922B8
:1014E00000BF131EA2F10102FBD1491C8142F6D3B9
:1014F00010BD70477047F0B503460D4616460027ED
:1015000029460A2E03D0002008702846F0BD33B9C2
:10151000302001F8010B002008702846F6E7002B68
:1015200003DA2D2001F8010B5B4242F210720DE04C
:1015300093FBF2F404B937B104F1300001F8010B68
:1015400004FB123301270A2092FBF0F2002AEFDCA1
:10155000002008702846D9E79AB06424FFF7D0FB32
:101560004FF4A060FFF790FA01210846FFF7B6FAA2
:10157000FFF75CFF0220FFF775F80D210220FEF750
:10158000FAFF00220D210220FFF79BF80020FFF751
:1015900069F8012200210846FEF7C9FF002108462C
:1015A000FEF7B3FFFFF7DCFB12481349086013484E
:1015B00013490860002201A92046FFF79CFF11A0F3
:1015C000FFF703FF1148FFF7EFF8012268210F48EA
:1015D000FFF752F90DE003210DA0FFF717FDC8201A
:1015E000FFF740FF03210BA0FFF78CFCC820FFF79B
:1015F00039FFF0E7F514000814000020F314000888
:10160000180000202D3138390000000004000020AF
:1016100041424300444546003816000800000020BF
:1016200054000000280100088C1600085400002017
:10163000640C0000440100080000000000000404E5
:101640000100050000000000000000000910000873
:101650000B100008C5100008C71000083D11000855
:101660003F1100080000000001020304010203040E
:10167000060708090204060800A24A040000000048
:0C16800000000000010203040607080936
:04000005080000ED02
:00000001FF
