:020000040800F2
:10000000B00C00208901000891010008930100084C
:100010009501000897010008990100080000000000
:100020000000000000000000000000009B0100082C
:100030009D010008000000009F010008A1010008C8
:10004000A3010008A3010008A3010008A301000800
:10005000A3010008A3010008A3010008A3010008F0
:10006000A3010008A3010008A3010008A3010008E0
:1000700039020008A301000869020008A301000872
:10008000A3010008A1020008A3010008A3010008C1
:10009000A3010008A3010008A3010008A3010008B0
:1000A000A3010008A3010008A3010008A3010008A0
:1000B000A3010008A3010008A3010008A301000890
:1000C000A3010008A3010008A3010008A301000880
:1000D000A3010008690A0008E10A0008590B00089A
:1000E000A3010008A3010008A301000800F002F822
:1000F00000F03AF80AA090E8000C82448344AAF188
:100100000107DA4501D100F02FF8AFF2090EBAE885
:100110000F0013F0010F18BFFB1A43F0010318473B
:10012000500C0000700C0000103A24BF78C878C151
:10013000FAD8520724BF30C830C144BF04680C60ED
:10014000704700000023002400250026103A28BF35
:1001500078C1FBD8520728BF30C148BF0B60704739
:100160001FB51FBD10B510BD00F033F81146FFF7E5
:10017000F7FF00F0C3FD00F051F803B4FFF7F2FF02
:1001800003BC00F063FD00000948804709480047B0
:10019000FEE7FEE7FEE7FEE7FEE7FEE7FEE7FEE737
:1001A000FEE7FEE704480549054A064B7047000094
:1001B000F9080008ED000008B0060020B00C00208F
:1001C000B0080020B00800207047704770477047A3
:1001D0007047754600F02CF8AE4605006946534658
:1001E00020F00700854618B020B5FFF7DBFFBDE81B
:1001F00020404FF000064FF000074FF000084FF08E
:10020000000B21F00701AC46ACE8C009ACE8C0091E
:10021000ACE8C009ACE8C0098D46704710B504468B
:10022000AFF300802046BDE81040FFF7A6BF0000F6
:10023000004870474C06002010B5202000F078F8E8
:1002400001280CD10021064800F062F8054800683A
:100250008047202000F040F8202000F04BF810BD2F
:100260001C0002402000002010B54FF4005000F0A8
:100270005FF801280ED10021074800F049F807482F
:10028000006880474FF4005000F026F84FF400500B
:1002900000F030F810BD00004400024010000020C3
:1002A00010B54FF0007000F043F801280ED1002186
:1002B000074800F02DF80748006880474FF00070AD
:1002C00000F00AF84FF0007000F014F810BD0000C4
:1002D000800002401800002000F0805111B1034955
:1002E000086001E0024948607047000004040240D1
:1002F0000000024000F0805111B10349086001E0A4
:1003000002494860704700000404024000000240B7
:1003100021B1026842F00102026004E002684FF677
:10032000FE731A40026070470146486880B2704709
:1003300001460020002201F0805313B1054B1A68DA
:1003400001E0054B1A6802EA01030BB1012000E04D
:1003500000207047000402400000024041607047E6
:100360002DE9F0410246002500260020002300244C
:10037000002791F803C00CF00F0591F803C00CF0B2
:10038000100CBCF1000F03D091F802C04CEA050537
:1003900091F800C0BCF1000F31D0146800202BE0B0
:1003A0004FF0010C0CFA00F3B1F800C00CEA0306A0
:1003B0009E4220D183004FF00F0C0CFA03F7BC4390
:1003C00005FA03FC4CEA040491F803C0BCF1280FC1
:1003D00006D14FF0010C0CFA00FCC2F814C00AE080
:1003E00091F803C0BCF1480F05D14FF0010C0CFA95
:1003F00000FCC2F810C0401C0828D1D31460B1F82A
:1004000000C0BCF1FF0F34DD546800202EE000F185
:10041000080C4FF0010808FA0CF3B1F800C00CEA20
:1004200003069E4221D183004FF00F0C0CFA03F714
:10043000BC4305FA03FC4CEA040491F803C0BCF188
:10044000280F05D100F1080C08FA0CF8C2F8148046
:1004500091F803C0BCF1480F07D100F1080C4FF030
:10046000010808FA0CF8C2F81080401C0828CED306
:100470005460BDE8F0814161704701617047F8B593
:1004800005460C46284600F049F80746204600F08D
:100490000EF8064610208DF8030003208DF80200A8
:1004A000ADF8006069463846FFF75AFFF8BD0146CF
:1004B000102931D2DFE801F0080A0C0E10121416D0
:1004C000181B1E2124272A2D012070470220FCE73B
:1004D0000420FAE70820F8E71020F6E72020F4E7E8
:1004E0004020F2E78020F0E74FF48070EDE74FF412
:1004F0000070EAE74FF48060E7E74FF40060E4E75C
:100500004FF48050E1E74FF40050DEE74FF48040B5
:10051000DBE74FF40040D8E70120D6E70146072982
:1005200013D2DFE801F00406080A0C0E1000084898
:1005300070470848FCE70848FAE70848F8E7084821
:10054000F6E70848F4E70848F2E70748F0E7000054
:1005500000080140000C014000100140001401405F
:1005600000180140001C01400020014010B5044665
:10057000072C28D2DFE804F004090E13181D22000E
:100580000121042000F044F81DE00121082000F0C2
:100590003FF818E00121102000F03AF813E00121A3
:1005A000202000F035F80EE00121402000F030F866
:1005B00009E00121802000F02BF804E0012108026D
:1005C00000F026F800BF00BF10BD2DE9F04106463F
:1005D0000C4615463046FFF7A1FF80462046FFF740
:1005E00066FF074625B939464046FFF744FF03E05A
:1005F00039464046FFF741FFBDE8F081024901431B
:10060000024A1160704700000000FA050CED00E09E
:1006100029B1064A92690243044B9A6104E0034AF5
:1006200092698243014B9A617047000000100240BA
:1006300008B501210420FFF7EBFF01210803FFF7B4
:10064000E7FF03208DF8020018208DF80300A0209A
:10065000ADF8000069461548FFF782FE04208DF8CA
:1006600003004020ADF8000069461048FFF778FE0F
:100670004FF440400E4908804FF4827048800020BB
:10068000888008208881012008810220C88080207D
:10069000C881072008824FF400704881054800F0A7
:1006A00085F80121034800F067F808BD0008014003
:1006B000380600200030014010B54BF6FF710248AB
:1006C00000F04CF810BD00000030014010B54FF4B0
:1006D0008041024800F042F810BD000000300140A7
:1006E00010B5C82403E00A2C00D206E0641E0121E4
:1006F000054800F04DF80028F5D000BF024800F092
:1007000050F8C0B210BD00000030014070B5054681
:10071000C82403E00A2C00D206E0641E02210E4821
:1007200000F036F80028F5D000BF29460A4800F04E
:100730003BF8C82403E00A2C00D206E0641E012125
:10074000054800F025F80028F5D000BF024800F069
:1007500028F8C0B270BD000000300140B1F5804FF4
:1007600004D1028842F48042028004E002884BF601
:10077000FF731A400280704721B1028842F04002A4
:10078000028004E002884FF6BF731A40028070476F
:100790000246002013890B400BB1012000E000202D
:1007A00070470146888970478181704710B50022E3
:1007B000028802F441520B884C8823438C882343DF
:1007C000CC8823430C8923434C8923438C892343BE
:1007D000CC8923431A430280838B4FF2FF7423405A
:1007E00083830B8A038210BD10B500F001F810BDA1
:1007F0000CB50020019000903348006840F4803030
:100800003149086000BF3048006800F400300090B3
:100810000198401C0190009818B90198B0F5A06F9C
:10082000F1D12948006800F4003010B10120009097
:1008300001E0002000900098012843D1234800687F
:1008400040F01000214908600846006820F00300CD
:1008500008600846006840F0020008601A484068D6
:10086000194948600846406848600846406840F4B6
:10087000806048600846406820F47C104860084664
:10088000406840F4E81048600846006840F0807016
:10089000086000BF0C48006800F000700028F9D024
:1008A0000948406820F0030007494860084640684E
:1008B00040F00200486000BF0348406800F00C00B0
:1008C0000828F9D10CBD00000010024000200240B1
:1008D000042808D14FF0E021096941F004014FF0EC
:1008E000E022116107E04FF0E021096921F00401E5
:1008F0004FF0E0221161704710B51348006840F0D6
:1009000001001149086008464068104908400E4936
:100910004860084600680E4908400B4908600846D0
:10092000006820F4802008600846406820F4FE003B
:1009300048604FF41F008860FFF756FF4FF00060DB
:100940000449086010BD0000001002400000FFF8DC
:10095000FFFFF6FE08ED00E010B5402000F078F84B
:1009600000F02EF8C020FFF7D1FE002404E00020A4
:10097000FFF7CCFE601CC4B2102CF8DB00F004F8CA
:100980008E2000F065F810BD10B501220421002072
:10099000FFF71BFE10BD70B504460D46402000F069
:1009A00057F800F00DF844F0C000FFF7AFFE2846FE
:1009B000FFF7ACFEFFF7E8FF8E2000F049F870BDAE
:1009C00010B5002204211046FFF7FFFD10BD10B541
:1009D000FFF72EFE04210020FFF751FDFFF7D4FFA3
:1009E00010BD10B58E2000F033F810BD2DE9F04198
:1009F00007460D4614460026FFF7E2FFFFF766FEA6
:100A00003846FFF783FEFFF757FE00BF05E0FFF70C
:100A100067FE2070641C701CC6B2AE42F7D3FFF7AD
:100A2000B3FFFFF753FEBDE8F08138B50024002581
:100A30006A4604214220FFF7D9FF00BF04E02402E8
:100A40001DF8050004436D1C042DF8D3204638BD65
:100A500010B50446FFF7B4FFFFF738FE2046FFF756
:100A600055FEFFF791FF10BD70B50025002440F240
:100A70002441164800F0BBF838B300211448FFF7B2
:100A800047FC4FF40030FFF727FC1148FFF74CFC00
:100A9000C0F58074002C00DA00244FF480710C48FB
:100AA000FFF75CFC01210A48FFF732FC09492046A8
:100AB000094A12689047054800F0C3F8C5B200BF64
:100AC00040F22441014800F083F870BD0038014035
:100AD00058000240380000200C000020704770478A
:100AE00070B50025002440F22441164800F07FF83C
:100AF00038B300211448FFF70BFC4FF40010FFF748
:100B0000EBFB1148FFF710FCC0F58074002C00DAF5
:100B100000244FF480710C48FFF720FC01210A48A3
:100B2000FFF7F6FB09492046094A12689047054835
:100B300000F087F8C5B200BF40F22441014800F040
:100B400047F870BD004400406C00024038020020AD
:100B5000140000207047704770B50025002440F253
:100B60002441164800F043F838B300211448FFF739
:100B7000CFFB4FF40070FFF7AFFB1148FFF7D4FB3A
:100B8000C0F58074002C00DA00244FF480710C480A
:100B9000FFF7E4FB01210A48FFF7BAFB09492046A9
:100BA000094A12689047054800F04BF8C5B200BFEB
:100BB00040F22441014800F00BF870BD00480040AD
:100BC00030000240380400201C00002070477047AD
:100BD00010B50022002340F66A14A14200D100BFE4
:100BE0000A1201249440A3B2DC43048010BD70B506
:100BF0000246002400230025002040F66A16B14278
:100C000000D100BFC1F3421501F01F03012606FA0F
:100C100003F3012D02D19689334006E0022D02D163
:100C2000168A334001E0968A33400C12012606FAF8
:100C300004F41688344013B10CB1012000E0002008
:100C400070BD01468888C0F30800704700BF704738
:100C500010B56FF00400FFF73BFE07480068074936
:100C6000B0FBF1F006490860084600684FF47A715D
:100C700048430449086010BD2400002000127A0097
:100C8000040000200800002070B50446B4F57A7F07
:100C90000ED94FF47A70B4FBF0F0C6B203E04FF413
:100CA0007A70FFF7F1FF301EA6F10101CEB2F6D146
:100CB0001148006860434FF0E021486100208861DE
:100CC0000846006940F00100086100BF4FF0E020D5
:100CD000056905F0010018B105F480300028F5D051
:100CE0004FF0E020006920F001004FF0E0210861A2
:100CF0000020886170BD000008000020FFF7FCFDA7
:100D00004FF4A060FFF77AFC01210846FFF780FC52
:100D1000FFF79EFF0220FFF729FC0D210220FFF7BD
:100D2000AEFB00220D210220FFF74FFCFFF74FFE24
:100D3000FFF757FEFFF710FE17E00F210220FFF725
:100D40002AFE4FF4FA70FFF79FFFFFF76EFE074988
:100D50000860F0210220FFF71EFE4FF4FA70FFF743
:100D600093FFFFF762FE01490860E6E700000020FC
:100D7000900D000800000020380000002801000845
:100D8000C80D000838000020780C0000440100085D
:100D9000000000000000000000000000DD0A000864
:100DA000DF0A0008550B0008570B0008CD0B0008A0
:100DB000CF0B000800A24A04000000000000000061
:080DC000010203040607080903
:04000005080000ED02
:00000001FF
